{
  "contractName": "EarthoExchange",
  "abi": [
    {
      "inputs": [
        {
          "internalType": "address",
          "name": "swapV2Router",
          "type": "address"
        },
        {
          "internalType": "address",
          "name": "eartho",
          "type": "address"
        },
        {
          "internalType": "address",
          "name": "weth",
          "type": "address"
        },
        {
          "internalType": "address[]",
          "name": "usd",
          "type": "address[]"
        },
        {
          "internalType": "address",
          "name": "recipient",
          "type": "address"
        }
      ],
      "stateMutability": "nonpayable",
      "type": "constructor"
    },
    {
      "anonymous": false,
      "inputs": [
        {
          "indexed": true,
          "internalType": "address",
          "name": "previousOwner",
          "type": "address"
        },
        {
          "indexed": true,
          "internalType": "address",
          "name": "newOwner",
          "type": "address"
        }
      ],
      "name": "OwnershipTransferred",
      "type": "event"
    },
    {
      "anonymous": false,
      "inputs": [
        {
          "indexed": false,
          "internalType": "address",
          "name": "user",
          "type": "address"
        },
        {
          "indexed": false,
          "internalType": "address",
          "name": "asset",
          "type": "address"
        },
        {
          "indexed": false,
          "internalType": "uint256",
          "name": "amount",
          "type": "uint256"
        }
      ],
      "name": "Purchase",
      "type": "event"
    },
    {
      "inputs": [],
      "name": "PRICE_BASE",
      "outputs": [
        {
          "internalType": "uint32",
          "name": "",
          "type": "uint32"
        }
      ],
      "stateMutability": "view",
      "type": "function"
    },
    {
      "inputs": [],
      "name": "_eartho",
      "outputs": [
        {
          "internalType": "contract Eartho",
          "name": "",
          "type": "address"
        }
      ],
      "stateMutability": "view",
      "type": "function"
    },
    {
      "inputs": [],
      "name": "_purchasePrice",
      "outputs": [
        {
          "internalType": "uint32",
          "name": "",
          "type": "uint32"
        }
      ],
      "stateMutability": "view",
      "type": "function"
    },
    {
      "inputs": [],
      "name": "_recipient",
      "outputs": [
        {
          "internalType": "address",
          "name": "",
          "type": "address"
        }
      ],
      "stateMutability": "view",
      "type": "function"
    },
    {
      "inputs": [],
      "name": "_uniswapV2Router",
      "outputs": [
        {
          "internalType": "contract IUniswapV2Router02",
          "name": "",
          "type": "address"
        }
      ],
      "stateMutability": "view",
      "type": "function"
    },
    {
      "inputs": [
        {
          "internalType": "uint256",
          "name": "",
          "type": "uint256"
        }
      ],
      "name": "_usd",
      "outputs": [
        {
          "internalType": "address",
          "name": "",
          "type": "address"
        }
      ],
      "stateMutability": "view",
      "type": "function"
    },
    {
      "inputs": [],
      "name": "_weth",
      "outputs": [
        {
          "internalType": "contract IWETH",
          "name": "",
          "type": "address"
        }
      ],
      "stateMutability": "view",
      "type": "function"
    },
    {
      "inputs": [],
      "name": "owner",
      "outputs": [
        {
          "internalType": "address",
          "name": "",
          "type": "address"
        }
      ],
      "stateMutability": "view",
      "type": "function"
    },
    {
      "inputs": [],
      "name": "renounceOwnership",
      "outputs": [],
      "stateMutability": "nonpayable",
      "type": "function"
    },
    {
      "inputs": [
        {
          "internalType": "address",
          "name": "newOwner",
          "type": "address"
        }
      ],
      "name": "transferOwnership",
      "outputs": [],
      "stateMutability": "nonpayable",
      "type": "function"
    },
    {
      "inputs": [
        {
          "internalType": "uint32",
          "name": "price",
          "type": "uint32"
        }
      ],
      "name": "setPurchasePrice",
      "outputs": [],
      "stateMutability": "nonpayable",
      "type": "function"
    },
    {
      "inputs": [
        {
          "internalType": "address",
          "name": "asset",
          "type": "address"
        },
        {
          "internalType": "uint256",
          "name": "amount",
          "type": "uint256"
        },
        {
          "components": [
            {
              "internalType": "int16",
              "name": "longitude",
              "type": "int16"
            },
            {
              "internalType": "int16",
              "name": "latitude",
              "type": "int16"
            },
            {
              "internalType": "string",
              "name": "link",
              "type": "string"
            },
            {
              "internalType": "address",
              "name": "to",
              "type": "address"
            }
          ],
          "internalType": "struct EarthoExchange.purchaseInput",
          "name": "input",
          "type": "tuple"
        }
      ],
      "name": "purchaseByToken",
      "outputs": [],
      "stateMutability": "nonpayable",
      "type": "function"
    },
    {
      "inputs": [
        {
          "components": [
            {
              "internalType": "int16",
              "name": "longitude",
              "type": "int16"
            },
            {
              "internalType": "int16",
              "name": "latitude",
              "type": "int16"
            },
            {
              "internalType": "string",
              "name": "link",
              "type": "string"
            },
            {
              "internalType": "address",
              "name": "to",
              "type": "address"
            }
          ],
          "internalType": "struct EarthoExchange.purchaseInput",
          "name": "input",
          "type": "tuple"
        }
      ],
      "name": "purchaseByETH",
      "outputs": [],
      "stateMutability": "payable",
      "type": "function"
    },
    {
      "inputs": [
        {
          "internalType": "address",
          "name": "asset",
          "type": "address"
        }
      ],
      "name": "getAmount",
      "outputs": [
        {
          "internalType": "uint256",
          "name": "",
          "type": "uint256"
        }
      ],
      "stateMutability": "view",
      "type": "function"
    }
  ],
  "bytecode": "0x60e06040523480156200001157600080fd5b506040516200221c3803806200221c833981016040819052620000349162000177565b600080546001600160a01b031916339081178255604051909182917f8be0079c531659141344cd1fd0a4f28419497f9722a3daafe3b4186f6b6457e0908290a3506001600160a01b0385811660805284811660a052831660c0526002805463ffffffff60a01b1916601960a21b17905560005b825181101562000118576001838281518110620000c857620000c862000297565b60209081029190910181015182546001810184556000938452919092200180546001600160a01b0319166001600160a01b03909216919091179055806200010f81620002ad565b915050620000a7565b50600280546001600160a01b0319166001600160a01b039290921691909117905550620002d792505050565b80516001600160a01b03811681146200015c57600080fd5b919050565b634e487b7160e01b600052604160045260246000fd5b600080600080600060a086880312156200019057600080fd5b6200019b8662000144565b94506020620001ac81880162000144565b9450620001bc6040880162000144565b60608801519094506001600160401b0380821115620001da57600080fd5b818901915089601f830112620001ef57600080fd5b81518181111562000204576200020462000161565b8060051b604051601f19603f830116810181811085821117156200022c576200022c62000161565b60405291825284820192508381018501918c8311156200024b57600080fd5b938501935b828510156200027457620002648562000144565b8452938501939285019262000250565b8097505050505050506200028b6080870162000144565b90509295509295909350565b634e487b7160e01b600052603260045260246000fd5b6000600019821415620002d057634e487b7160e01b600052601160045260246000fd5b5060010190565b60805160a05160c051611ec16200035b600039600081816101c40152818161049d01528181610514015281816109ca01528181610a370152818161109f0152818161116701526111d40152600081816102dd0152610c2701526000818161012301528181610d8501528181610f710152818161100c01526113df0152611ec16000f3fe6080604052600436106100dd5760003560e01c8063ae76e8fb1161007f578063d4cca5f111610059578063d4cca5f11461025d578063f2fde38b1461027d578063f5a797671461029d578063f843e59e146102cb57600080fd5b8063ae76e8fb146101f9578063af3e279d1461021d578063b21b71801461023d57600080fd5b8063715018a6116100bb578063715018a61461017f5780638da5cb5b14610194578063a1764595146101b2578063a32c785a146101e657600080fd5b80631ddd1bf6146100e2578063583e056814610111578063671dfc921461015d575b600080fd5b3480156100ee57600080fd5b506100f7606481565b60405163ffffffff90911681526020015b60405180910390f35b34801561011d57600080fd5b506101457f000000000000000000000000000000000000000000000000000000000000000081565b6040516001600160a01b039091168152602001610108565b34801561016957600080fd5b5061017d6101783660046116c7565b6102ff565b005b34801561018b57600080fd5b5061017d6103c0565b3480156101a057600080fd5b506000546001600160a01b0316610145565b3480156101be57600080fd5b506101457f000000000000000000000000000000000000000000000000000000000000000081565b61017d6101f4366004611860565b610434565b34801561020557600080fd5b506002546100f790600160a01b900463ffffffff1681565b34801561022957600080fd5b5061017d610238366004611895565b610569565b34801561024957600080fd5b506101456102583660046118ec565b6106f5565b34801561026957600080fd5b50600254610145906001600160a01b031681565b34801561028957600080fd5b5061017d610298366004611905565b61071f565b3480156102a957600080fd5b506102bd6102b8366004611905565b610809565b604051908152602001610108565b3480156102d757600080fd5b506101457f000000000000000000000000000000000000000000000000000000000000000081565b6000546001600160a01b031633146103325760405162461bcd60e51b815260040161032990611920565b60405180910390fd5b60008163ffffffff161161039a5760405162461bcd60e51b815260206004820152602960248201527f536574207075726368617365207072696365206661696c20666f72207072696360448201526865206973207a65726f60b81b6064820152608401610329565b6002805463ffffffff909216600160a01b0263ffffffff60a01b19909216919091179055565b6000546001600160a01b031633146103ea5760405162461bcd60e51b815260040161032990611920565b600080546040516001600160a01b03909116907f8be0079c531659141344cd1fd0a4f28419497f9722a3daafe3b4186f6b6457e0908390a3600080546001600160a01b0319169055565b3460008161049b5760405162461bcd60e51b815260206004820152602e60248201527f70757263686173652065617274686f20627920455448206661696c20666f722060448201526d616d6f756e74206973207a65726f60901b6064820152608401610329565b7f00000000000000000000000000000000000000000000000000000000000000006001600160a01b031663d0e30db0836040518263ffffffff1660e01b81526004016000604051808303818588803b1580156104f657600080fd5b505af115801561050a573d6000803e3d6000fd5b50505050506105397f000000000000000000000000000000000000000000000000000000000000000083610b23565b90508181101561055b5760405162461bcd60e51b815260040161032990611955565b61056483610ba0565b505050565b600082116105c95760405162461bcd60e51b815260206004820152602760248201527f70757263686173652065617274686f206661696c20666f7220616d6f756e74206044820152666973207a65726f60c81b6064820152608401610329565b6000806105d585610c94565b905080156106ac576000856001600160a01b031663313ce5676040518163ffffffff1660e01b8152600401602060405180830381865afa15801561061d573d6000803e3d6000fd5b505050506040513d601f19601f8201168201806040525081019061064191906119a2565b9050606461065082600a611abf565b60025461066a9190600160a01b900463ffffffff16611ace565b6106749190611b03565b92508285106106a157600254610699906001600160a01b038881169133911688610d0b565b8492506106a6565b600092505b506106b9565b6106b68585610b23565b91505b6000821180156106c95750838210155b6106e55760405162461bcd60e51b815260040161032990611955565b6106ee83610ba0565b5050505050565b6001818154811061070557600080fd5b6000918252602090912001546001600160a01b0316905081565b6000546001600160a01b031633146107495760405162461bcd60e51b815260040161032990611920565b6001600160a01b0381166107ae5760405162461bcd60e51b815260206004820152602660248201527f4f776e61626c653a206e6577206f776e657220697320746865207a65726f206160448201526564647265737360d01b6064820152608401610329565b600080546040516001600160a01b03808516939216917f8be0079c531659141344cd1fd0a4f28419497f9722a3daafe3b4186f6b6457e091a3600080546001600160a01b0319166001600160a01b0392909216919091179055565b6040805160028082526060820183526000928392839283928392919060208301908036833750506040805160038082526080820190925292935060009291506020820160608036833701905050905060005b600154811015610b1757878360008151811061087957610879611b17565b60200260200101906001600160a01b031690816001600160a01b031681525050600181815481106108ac576108ac611b17565b9060005260206000200160009054906101000a90046001600160a01b0316836001815181106108dd576108dd611b17565b60200260200101906001600160a01b031690816001600160a01b0316815250506001818154811061091057610910611b17565b600091825260209182902001546040805163313ce56760e01b815290516001600160a01b039092169263313ce567926004808401938290030181865afa15801561095e573d6000803e3d6000fd5b505050506040513d601f19601f8201168201806040525081019061098291906119a2565b9550606461099187600a611abf565b6002546109ab9190600160a01b900463ffffffff16611ace565b6109b59190611b03565b94506109c18386610d6b565b935083610afa577f00000000000000000000000000000000000000000000000000000000000000006001600160a01b0316886001600160a01b031614610afa578782600081518110610a1557610a15611b17565b60200260200101906001600160a01b031690816001600160a01b0316815250507f000000000000000000000000000000000000000000000000000000000000000082600181518110610a6957610a69611b17565b60200260200101906001600160a01b031690816001600160a01b03168152505060018181548110610a9c57610a9c611b17565b9060005260206000200160009054906101000a90046001600160a01b031682600281518110610acd57610acd611b17565b60200260200101906001600160a01b031690816001600160a01b031681525050610af78286610d6b565b93505b8315610b0557610b17565b80610b0f81611b2d565b91505061085b565b50919695505050505050565b600080825b600154821015610b8057610b6460018381548110610b4857610b48611b17565b6000918252602090912001546001600160a01b03168686610e6c565b15610b6e57610b80565b81610b7881611b2d565b925050610b28565b600154821015610b93579150610b9a9050565b6000925050505b92915050565b6040805160c081018252600081830181815260608084018381526080850184905260a085019182528285526020808601949094528651600190810b9093529286015190910b90915291830151909152610bf7611276565b815160ff90911660409182015260608301516001600160a01b0390811660208401529051637ccc019f60e01b81527f000000000000000000000000000000000000000000000000000000000000000090911690637ccc019f90610c5e908490600401611ba0565b600060405180830381600087803b158015610c7857600080fd5b505af1158015610c8c573d6000803e3d6000fd5b505050505050565b6000805b600154811015610cf157826001600160a01b031660018281548110610cbf57610cbf611b17565b6000918252602090912001546001600160a01b03161415610cdf57610cf1565b80610ce981611b2d565b915050610c98565b6001548110610d01576000610d04565b60015b9392505050565b604080516001600160a01b0385811660248301528416604482015260648082018490528251808303909101815260849091019091526020810180516001600160e01b03166323b872dd60e01b179052610d659085906112cb565b50505050565b6040516307c0329d60e21b81526000906001600160a01b037f00000000000000000000000000000000000000000000000000000000000000001690631f00ca7490610dbc9085908790600401611c53565b600060405180830381865afa925050508015610dfa57506040513d6000823e601f3d908101601f19168201604052610df79190810190611c6c565b60015b610e38573d808015610e28576040519150601f19603f3d011682016040523d82523d6000602084013e610e2d565b606091505b506000915050610b9a565b6000815111610e48576000610e64565b80600081518110610e5b57610e5b611b17565b60200260200101515b915050610b9a565b600080600090506000856001600160a01b031663313ce5676040518163ffffffff1660e01b8152600401602060405180830381865afa158015610eb3573d6000803e3d6000fd5b505050506040513d601f19601f82011682018060405250810190610ed791906119a2565b905060006064610ee883600a611abf565b600254610f029190600160a01b900463ffffffff16611ace565b610f0c9190611b03565b604080516002808252606082018352929350600092909160208301908036833750506040805160038082526080820190925292935060009291506020820160608036833701905050604051636eb1769f60e11b81523060048201526001600160a01b037f0000000000000000000000000000000000000000000000000000000000000000811660248301529192506000918a169063dd62ed3e90604401602060405180830381865afa158015610fc6573d6000803e3d6000fd5b505050506040513d601f19601f82011682018060405250810190610fea9190611d13565b90508781101561109d575060405163095ea7b360e01b81526001600160a01b037f0000000000000000000000000000000000000000000000000000000000000000811660048301526fffffffffffffffffffffffffffffffff6024830181905291908a169063095ea7b3906044016020604051808303816000875af1158015611077573d6000803e3d6000fd5b505050506040513d601f19601f8201168201806040525081019061109b9190611d2c565b505b7f00000000000000000000000000000000000000000000000000000000000000006001600160a01b0316896001600160a01b0316146110eb576110eb6001600160a01b038a1633308b610d0b565b88836000815181106110ff576110ff611b17565b60200260200101906001600160a01b031690816001600160a01b031681525050898360018151811061113357611133611b17565b60200260200101906001600160a01b031690816001600160a01b03168152505061115e83898661139d565b955085611268577f00000000000000000000000000000000000000000000000000000000000000006001600160a01b0316896001600160a01b0316146112685788826000815181106111b2576111b2611b17565b60200260200101906001600160a01b031690816001600160a01b0316815250507f00000000000000000000000000000000000000000000000000000000000000008260018151811061120657611206611b17565b60200260200101906001600160a01b031690816001600160a01b031681525050898260028151811061123a5761123a611b17565b60200260200101906001600160a01b031690816001600160a01b03168152505061126582898661139d565b95505b509398975050505050505050565b6000804442604051602001611295929190918252602082015260400190565b60408051601f19818403018152919052805160209091012090506112ba600682611d4e565b6112c5906001611d62565b91505090565b6000611320826040518060400160405280602081526020017f5361666545524332303a206c6f772d6c6576656c2063616c6c206661696c6564815250856001600160a01b03166114fb9092919063ffffffff16565b805190915015610564578080602001905181019061133e9190611d2c565b6105645760405162461bcd60e51b815260206004820152602a60248201527f5361666545524332303a204552433230206f7065726174696f6e20646964206e6044820152691bdd081cdd58d8d9595960b21b6064820152608401610329565b600080806113ac846063611512565b909250905081156114f0576113c281606461155a565b6002546040516338ed173960e01b81529192506001600160a01b037f00000000000000000000000000000000000000000000000000000000000000008116926338ed17399261141d928a9287928d9216904290600401611d7a565b6000604051808303816000875af192505050801561145d57506040513d6000823e601f3d908101601f1916820160405261145a9190810190611c6c565b60015b6114d357611469611db6565b806308c379a01415611495575061147e611dd2565b806114895750611497565b60009350505050610d04565b505b3d8080156114c1576040519150601f19603f3d011682016040523d82523d6000602084013e6114c6565b606091505b5060009350505050610d04565b60008151116114e35760006114e6565b60015b9350505050610d04565b600092505050610d04565b606061150a8484600085611566565b949350505050565b600080836115265750600190506000611553565b8383028385828161153957611539611aed565b041461154c576000809250925050611553565b6001925090505b9250929050565b6000610d048284611b03565b6060824710156115c75760405162461bcd60e51b815260206004820152602660248201527f416464726573733a20696e73756666696369656e742062616c616e636520666f6044820152651c8818d85b1b60d21b6064820152608401610329565b843b6116155760405162461bcd60e51b815260206004820152601d60248201527f416464726573733a2063616c6c20746f206e6f6e2d636f6e74726163740000006044820152606401610329565b600080866001600160a01b031685876040516116319190611e5c565b60006040518083038185875af1925050503d806000811461166e576040519150601f19603f3d011682016040523d82523d6000602084013e611673565b606091505b509150915061168382828661168e565b979650505050505050565b6060831561169d575081610d04565b8251156116ad5782518084602001fd5b8160405162461bcd60e51b81526004016103299190611e78565b6000602082840312156116d957600080fd5b813563ffffffff81168114610d0457600080fd5b634e487b7160e01b600052604160045260246000fd5b6080810181811067ffffffffffffffff82111715611723576117236116ed565b60405250565b601f8201601f1916810167ffffffffffffffff8111828210171561174f5761174f6116ed565b6040525050565b8035600181900b811461176857600080fd5b919050565b80356001600160a01b038116811461176857600080fd5b60006080828403121561179657600080fd5b6040516117a281611703565b8091506117ae83611756565b815260206117bd818501611756565b81830152604084013567ffffffffffffffff808211156117dc57600080fd5b818601915086601f8301126117f057600080fd5b813581811115611802576118026116ed565b604051915061181a601f8201601f1916850183611729565b808252878482850101111561182e57600080fd5b80848401858401376000848284010152508060408501525050506118546060840161176d565b60608201525092915050565b60006020828403121561187257600080fd5b813567ffffffffffffffff81111561188957600080fd5b61150a84828501611784565b6000806000606084860312156118aa57600080fd5b6118b38461176d565b925060208401359150604084013567ffffffffffffffff8111156118d657600080fd5b6118e286828701611784565b9150509250925092565b6000602082840312156118fe57600080fd5b5035919050565b60006020828403121561191757600080fd5b610d048261176d565b6020808252818101527f4f776e61626c653a2063616c6c6572206973206e6f7420746865206f776e6572604082015260600190565b6020808252602d908201527f70757263686173652065617274686f206661696c20666f7220616d6f756e742060408201526c0d2e640dcdee840cadcdeeaced609b1b606082015260800190565b6000602082840312156119b457600080fd5b815160ff81168114610d0457600080fd5b634e487b7160e01b600052601160045260246000fd5b600181815b80851115611a165781600019048211156119fc576119fc6119c5565b80851615611a0957918102915b93841c93908002906119e0565b509250929050565b600082611a2d57506001610b9a565b81611a3a57506000610b9a565b8160018114611a505760028114611a5a57611a76565b6001915050610b9a565b60ff841115611a6b57611a6b6119c5565b50506001821b610b9a565b5060208310610133831016604e8410600b8410161715611a99575081810a610b9a565b611aa383836119db565b8060001904821115611ab757611ab76119c5565b029392505050565b6000610d0460ff841683611a1e565b6000816000190483118215151615611ae857611ae86119c5565b500290565b634e487b7160e01b600052601260045260246000fd5b600082611b1257611b12611aed565b500490565b634e487b7160e01b600052603260045260246000fd5b6000600019821415611b4157611b416119c5565b5060010190565b60005b83811015611b63578181015183820152602001611b4b565b83811115610d655750506000910152565b60008151808452611b8c816020860160208601611b48565b601f01601f19169290920160200192915050565b602081526000825160406020840152805160010b6060840152602081015160010b608084015260ff60408201511660a084015260608101519050608060c0840152611bee60e0840182611b74565b602094909401516001600160a01b0316604093909301929092525090919050565b600081518084526020808501945080840160005b83811015611c485781516001600160a01b031687529582019590820190600101611c23565b509495945050505050565b82815260406020820152600061150a6040830184611c0f565b60006020808385031215611c7f57600080fd5b825167ffffffffffffffff80821115611c9757600080fd5b818501915085601f830112611cab57600080fd5b815181811115611cbd57611cbd6116ed565b8060051b9150604051611cd285840182611729565b81815291830184019184810188841115611ceb57600080fd5b938501935b83851015611d075784518152938501938501611cf0565b50979650505050505050565b600060208284031215611d2557600080fd5b5051919050565b600060208284031215611d3e57600080fd5b81518015158114610d0457600080fd5b600082611d5d57611d5d611aed565b500690565b60008219821115611d7557611d756119c5565b500190565b85815284602082015260a060408201526000611d9960a0830186611c0f565b6001600160a01b0394909416606083015250608001529392505050565b600060033d1115611dcf5760046000803e5060005160e01c5b90565b600060443d1015611de05790565b6040516003193d81016004833e81513d67ffffffffffffffff8160248401118184111715611e1057505050505090565b8285019150815181811115611e285750505050505090565b843d8701016020828501011115611e425750505050505090565b611e5160208286010187611729565b509095945050505050565b60008251611e6e818460208701611b48565b9190910192915050565b602081526000610d046020830184611b7456fea26469706673582212206c5fa0cbbfa8b23aa142284233ce2c202210bd887524daa706dd71db5efd30b364736f6c634300080b0033",
  "immutableReferences": {
    "13616": [
      {
        "length": 32,
        "start": 291
      },
      {
        "length": 32,
        "start": 3461
      },
      {
        "length": 32,
        "start": 3953
      },
      {
        "length": 32,
        "start": 4108
      },
      {
        "length": 32,
        "start": 5087
      }
    ],
    "13619": [
      {
        "length": 32,
        "start": 733
      },
      {
        "length": 32,
        "start": 3111
      }
    ],
    "13622": [
      {
        "length": 32,
        "start": 452
      },
      {
        "length": 32,
        "start": 1181
      },
      {
        "length": 32,
        "start": 1300
      },
      {
        "length": 32,
        "start": 2506
      },
      {
        "length": 32,
        "start": 2615
      },
      {
        "length": 32,
        "start": 4255
      },
      {
        "length": 32,
        "start": 4455
      },
      {
        "length": 32,
        "start": 4564
      }
    ]
  },
  "source": "// SPDX-License-Identifier: agpl-3.0\r\npragma solidity ^0.8.0;\r\n\r\nimport \"../dependencies/contracts/access/Ownable.sol\";\r\nimport \"../dependencies/contracts/token/ERC20/extensions/IERC20Metadata.sol\";\r\nimport \"../dependencies/contracts/utils/math/SafeMath.sol\";\r\nimport \"../dependencies/contracts/token/ERC20/utils/SafeERC20.sol\";\r\nimport \"../interface/IUniswapV2Router.sol\";\r\nimport \"../interface/IWETH.sol\";\r\nimport \"./Eartho.sol\";\r\n\r\nimport \"../utils/DebugTool.sol\";\r\n\r\ncontract EarthoExchange is Ownable {\r\n    using SafeMath for uint256;\r\n    using SafeERC20 for IERC20;\r\n\r\n    // bsc: 0x10ed43c718714eb63d5aa57b78b54704e256024e (pancakeswap base on uniswap)\r\n    IUniswapV2Router02 public immutable _uniswapV2Router;\r\n    Eartho public immutable _eartho;\r\n    IWETH public immutable _weth;\r\n    /**\r\n     * bsc usd set:\r\n         usdc: 0x8AC76a51cc950d9822D68b83fE1Ad97B32Cd580d;\r\n         usdt: 0x55d398326f99059ff775485246999027b3197955.\r\n    **/\r\n    address[] public _usd;\r\n    // who will receive payment\r\n    address public _recipient;\r\n    // the purchase price for earth(for example: $1.00 --> 100)\r\n    uint32 public _purchasePrice;\r\n    uint32 public constant PRICE_BASE = 100;\r\n\r\n    // the input params of purchase\r\n    struct purchaseInput {\r\n        int16 longitude;                // [-1800, 1800]: -1800 mean: 180.00'W; 121 mean: 12.10'E\r\n        int16 latitude;                 // [-900, 900]: -900 mean: 90.00'S; 121 mead: 12.10'N\r\n        string link;\r\n        address to;\r\n    }\r\n\r\n    /**** event ****/\r\n    event Purchase(address user, address asset, uint256 amount);\r\n\r\n\r\n    constructor (address swapV2Router,\r\n                 address eartho,\r\n                 address weth,\r\n                 address[] memory usd,\r\n                 address recipient) {\r\n        _uniswapV2Router = IUniswapV2Router02(swapV2Router);\r\n        _eartho = Eartho(eartho);\r\n        _weth = IWETH(weth);\r\n        _purchasePrice = PRICE_BASE;\r\n\r\n        for ( uint256 i = 0; i < usd.length; i++ ) {\r\n            _usd.push(usd[i]);\r\n        }\r\n        _recipient = recipient;\r\n    }\r\n\r\n    /*\r\n    * @dev: setPurchasePrice for setting the price for nft\r\n    */\r\n    function setPurchasePrice(uint32 price) external onlyOwner {\r\n        require(price > 0, \"Set purchase price fail for price is zero\");\r\n        _purchasePrice = price;\r\n    }\r\n\r\n    /*\r\n    * @dev purchaseByToken for buy eartho by erc-20/bep-20 asset\r\n    * @params token: the address of asset\r\n    * @params amount: the buy amount for user by asset\r\n    * @params input: the input params of purchase\r\n    */\r\n    function purchaseByToken(address asset, uint256 amount, purchaseInput memory input) external {\r\n        require(amount > 0, \"purchase eartho fail for amount is zero\");\r\n        uint256 price = 0;\r\n        bool isUSD = _matchUSD(asset);\r\n\r\n        if ( isUSD ) {\r\n            uint8 decimals = IERC20Metadata(asset).decimals();\r\n            price = _purchasePrice*(10**decimals) / PRICE_BASE;\r\n            if ( amount >= price ) {\r\n                IERC20(asset).safeTransferFrom(msg.sender, _recipient, amount);\r\n                price = amount;\r\n            } else {\r\n                price = 0;\r\n            }\r\n        }\r\n        else {\r\n            price = _swap(asset, amount);\r\n        }\r\n\r\n        /*if ( price < amount ) {\r\n            string memory print1 = DebugTool.uintToString(price);\r\n            require(false, print1);\r\n        }*/\r\n        require((price > 0 && price >= amount), 'purchase eartho fail for amount is not enough');\r\n        _mintNFT(input);\r\n    }\r\n\r\n    /*\r\n    * @dev purchaseByETH for buy eartho by eth\r\n    * @params input: the input params of purchase\r\n    */\r\n    function purchaseByETH(purchaseInput memory input) external payable {\r\n        uint256 amount = msg.value;\r\n        uint256 price = 0;\r\n        require(amount > 0, \"purchase eartho by ETH fail for amount is zero\");\r\n\r\n        _weth.deposit{value: amount}();\r\n        price = _swap(address(_weth), amount);\r\n\r\n        require(price >= amount, 'purchase eartho fail for amount is not enough');\r\n        _mintNFT(input);\r\n    }\r\n\r\n    /*\r\n    * @dev getAmount the purchase nft amount of asset\r\n    * @params: the address of asset\r\n    */\r\n    function getAmount(address asset) public view returns(uint256) {\r\n        uint8 decimals = 0;\r\n        uint256 price = 0;\r\n        uint256 amount = 0;\r\n        address[] memory path = new address[](2);\r\n        address[] memory path2 = new address[](3);\r\n        uint256 i = 0;\r\n\r\n        while ( i < _usd.length ) {\r\n            path[0] = asset;\r\n            path[1] = _usd[i];\r\n\r\n            decimals = IERC20Metadata(_usd[i]).decimals();\r\n            price = _purchasePrice*(10**decimals) / PRICE_BASE;\r\n\r\n            amount = _getAmount(path, price);\r\n            if ( amount == 0 ) {\r\n                if ( asset != address(_weth) ) {\r\n                    path2[0] = asset;\r\n                    path2[1] = address(_weth);\r\n                    path2[2] = _usd[i];\r\n                    amount = _getAmount(path2, price);\r\n                }\r\n            }\r\n\r\n            if ( amount > 0 ) {\r\n                break;\r\n            } else {\r\n                i++;\r\n            }\r\n        }\r\n\r\n        return amount;\r\n    }\r\n\r\n    function _getAmount(address[] memory path, uint256 auctionPrice) internal view returns (uint256) {\r\n        try _uniswapV2Router.getAmountsIn(auctionPrice, path) returns (uint[] memory amounts) {\r\n            return (amounts.length > 0) ? amounts[0] : 0;\r\n        } catch (bytes memory) {\r\n            return 0;\r\n        }\r\n    }\r\n\r\n    function _swap(address asset, uint256 amount) internal returns (uint256) {\r\n        uint256 i = 0;\r\n        uint256 ret = amount;\r\n\r\n        while ( i < _usd.length ) {\r\n            if ( _isSwap(_usd[i], asset, amount) ) {\r\n                break;\r\n            } else {\r\n                i++;\r\n            }\r\n        }\r\n\r\n        if ( i < _usd.length ) {\r\n            return ret;\r\n        }\r\n        else {\r\n            return 0;\r\n        }\r\n    }\r\n\r\n    function _isSwap(address usd, address asset, uint256 amount) internal returns (bool) {\r\n        bool ret = false;\r\n        uint8 decimals = IERC20Metadata(usd).decimals();\r\n        uint256 price = _purchasePrice*(10**decimals) / PRICE_BASE;\r\n        address[] memory path = new address[](2);\r\n        address[] memory path2 = new address[](3);\r\n        uint256 approveAmount = IERC20(asset).allowance(address(this), address(_uniswapV2Router));\r\n\r\n        if ( approveAmount < amount ) {\r\n            approveAmount = type(uint128).max;\r\n            IERC20(asset).approve(address(_uniswapV2Router), approveAmount);\r\n        }\r\n\r\n        if ( asset != address(_weth) ) {\r\n            IERC20(asset).safeTransferFrom(msg.sender, address(this), amount);\r\n        }\r\n\r\n        path[0] = asset;\r\n        path[1] = usd;\r\n        ret = _swapToken(path, amount, price);\r\n        if ( !ret ) {\r\n            if ( asset != address(_weth) ) {\r\n                path2[0] = asset;\r\n                path2[1] = address(_weth);\r\n                path2[2] = usd;\r\n                ret = _swapToken(path2, amount, price);\r\n            }\r\n        }\r\n\r\n        return ret;\r\n    }\r\n\r\n    function _swapToken(address[] memory path, uint256 amount, uint256 auctionPrice) internal returns(bool) {\r\n        bool ret = false;\r\n        uint256 refPrice = 0;\r\n\r\n        (ret, refPrice) = auctionPrice.tryMul(99);\r\n        if ( ret ) {\r\n            refPrice = refPrice.div(100);\r\n            try _uniswapV2Router.swapExactTokensForTokens(amount,\r\n                                                          refPrice,\r\n                                                          path,\r\n                                                          _recipient,\r\n                                                          block.timestamp)\r\n                                                          returns (uint[] memory amounts)\r\n            {\r\n                return (amounts.length > 0) ? true : false;\r\n            } catch Error(string memory revertReason) {\r\n                //if ( path.length >= 3 ) {\r\n                //    require(false, revertReason);\r\n                //}\r\n                return false;\r\n            } catch (bytes memory returnData) {\r\n                return false;\r\n            }\r\n        } else {\r\n            return false;\r\n        }\r\n    }\r\n\r\n    function _matchUSD(address asset) internal view returns(bool) {\r\n        uint256 i = 0;\r\n\r\n        while ( i < _usd.length ) {\r\n            if ( _usd[i] == asset ) {\r\n                break;\r\n            } else {\r\n                i++;\r\n            }\r\n        }\r\n\r\n        return ( i < _usd.length ) ? true : false;\r\n    }\r\n\r\n    function _mintNFT(purchaseInput memory input) internal {\r\n        Eartho.mintInput memory mintParams;\r\n\r\n        mintParams.context.longitude = input.longitude;\r\n        mintParams.context.latitude = input.latitude;\r\n        mintParams.context.link = input.link;\r\n        mintParams.context.level = rand();\r\n        mintParams.to = input.to;\r\n\r\n        _eartho.mint(mintParams);\r\n    }\r\n\r\n    function rand() internal view returns(uint8) {\r\n        uint256 random = uint256(keccak256(abi.encodePacked(block.difficulty, block.timestamp)));\r\n        return uint8(random%6+1);\r\n    }\r\n}",
  "sourcePath": "E:\\my_work\\Blockchain\\Polylend\\core\\eartho\\contracts\\token\\EarthoExchange.sol",
  "compiler": {
    "name": "solc",
    "version": "0.8.11+commit.d7f03943.Emscripten.clang"
  },
  "schemaVersion": "3.4.4",
  "updatedAt": "2022-02-09T08:44:31.888Z",
  "networkType": "ethereum",
  "devdoc": {
    "kind": "dev",
    "methods": {
      "owner()": {
        "details": "Returns the address of the current owner."
      },
      "renounceOwnership()": {
        "details": "Leaves the contract without owner. It will not be possible to call `onlyOwner` functions anymore. Can only be called by the current owner. NOTE: Renouncing ownership will leave the contract without an owner, thereby removing any functionality that is only available to the owner."
      },
      "transferOwnership(address)": {
        "details": "Transfers ownership of the contract to a new account (`newOwner`). Can only be called by the current owner."
      }
    },
    "version": 1
  },
  "userdoc": {
    "kind": "user",
    "methods": {
      "_usd(uint256)": {
        "notice": "bsc usd set: usdc: 0x8AC76a51cc950d9822D68b83fE1Ad97B32Cd580d; usdt: 0x55d398326f99059ff775485246999027b3197955.*"
      }
    },
    "version": 1
  }
}