{
  "contractName": "Eartho",
  "abi": [
    {
      "inputs": [
        {
          "internalType": "string",
          "name": "uri",
          "type": "string"
        }
      ],
      "stateMutability": "nonpayable",
      "type": "constructor"
    },
    {
      "anonymous": false,
      "inputs": [
        {
          "indexed": true,
          "internalType": "address",
          "name": "owner",
          "type": "address"
        },
        {
          "indexed": true,
          "internalType": "address",
          "name": "approved",
          "type": "address"
        },
        {
          "indexed": true,
          "internalType": "uint256",
          "name": "tokenId",
          "type": "uint256"
        }
      ],
      "name": "Approval",
      "type": "event"
    },
    {
      "anonymous": false,
      "inputs": [
        {
          "indexed": true,
          "internalType": "address",
          "name": "owner",
          "type": "address"
        },
        {
          "indexed": true,
          "internalType": "address",
          "name": "operator",
          "type": "address"
        },
        {
          "indexed": false,
          "internalType": "bool",
          "name": "approved",
          "type": "bool"
        }
      ],
      "name": "ApprovalForAll",
      "type": "event"
    },
    {
      "anonymous": false,
      "inputs": [
        {
          "indexed": false,
          "internalType": "address",
          "name": "owner",
          "type": "address"
        },
        {
          "indexed": false,
          "internalType": "uint256",
          "name": "tokenId",
          "type": "uint256"
        },
        {
          "indexed": false,
          "internalType": "int16",
          "name": "longitude",
          "type": "int16"
        },
        {
          "indexed": false,
          "internalType": "int16",
          "name": "latitude",
          "type": "int16"
        }
      ],
      "name": "Burn",
      "type": "event"
    },
    {
      "anonymous": false,
      "inputs": [
        {
          "indexed": false,
          "internalType": "address",
          "name": "from",
          "type": "address"
        },
        {
          "indexed": false,
          "internalType": "address",
          "name": "to",
          "type": "address"
        }
      ],
      "name": "ChangeOwner",
      "type": "event"
    },
    {
      "anonymous": false,
      "inputs": [
        {
          "indexed": false,
          "internalType": "address",
          "name": "to",
          "type": "address"
        },
        {
          "indexed": false,
          "internalType": "uint256",
          "name": "tokenId",
          "type": "uint256"
        },
        {
          "indexed": false,
          "internalType": "int16",
          "name": "longitude",
          "type": "int16"
        },
        {
          "indexed": false,
          "internalType": "int16",
          "name": "latitude",
          "type": "int16"
        },
        {
          "indexed": false,
          "internalType": "uint8",
          "name": "level",
          "type": "uint8"
        }
      ],
      "name": "Mint",
      "type": "event"
    },
    {
      "anonymous": false,
      "inputs": [
        {
          "indexed": true,
          "internalType": "address",
          "name": "previousOwner",
          "type": "address"
        },
        {
          "indexed": true,
          "internalType": "address",
          "name": "newOwner",
          "type": "address"
        }
      ],
      "name": "OwnershipTransferred",
      "type": "event"
    },
    {
      "anonymous": false,
      "inputs": [
        {
          "indexed": true,
          "internalType": "address",
          "name": "from",
          "type": "address"
        },
        {
          "indexed": true,
          "internalType": "address",
          "name": "to",
          "type": "address"
        },
        {
          "indexed": true,
          "internalType": "uint256",
          "name": "tokenId",
          "type": "uint256"
        }
      ],
      "name": "Transfer",
      "type": "event"
    },
    {
      "anonymous": false,
      "inputs": [
        {
          "indexed": false,
          "internalType": "string",
          "name": "uri",
          "type": "string"
        }
      ],
      "name": "UpdateBaseURI",
      "type": "event"
    },
    {
      "anonymous": false,
      "inputs": [
        {
          "indexed": false,
          "internalType": "address",
          "name": "minter",
          "type": "address"
        },
        {
          "indexed": false,
          "internalType": "bool",
          "name": "update",
          "type": "bool"
        }
      ],
      "name": "UpdateMinter",
      "type": "event"
    },
    {
      "inputs": [],
      "name": "LATITUDE_DOWN_GUARD",
      "outputs": [
        {
          "internalType": "int16",
          "name": "",
          "type": "int16"
        }
      ],
      "stateMutability": "view",
      "type": "function"
    },
    {
      "inputs": [],
      "name": "LATITUDE_MAX",
      "outputs": [
        {
          "internalType": "int16",
          "name": "",
          "type": "int16"
        }
      ],
      "stateMutability": "view",
      "type": "function"
    },
    {
      "inputs": [],
      "name": "LATITUDE_UP_GUARD",
      "outputs": [
        {
          "internalType": "int16",
          "name": "",
          "type": "int16"
        }
      ],
      "stateMutability": "view",
      "type": "function"
    },
    {
      "inputs": [],
      "name": "LONGITUDE_MAX",
      "outputs": [
        {
          "internalType": "int16",
          "name": "",
          "type": "int16"
        }
      ],
      "stateMutability": "view",
      "type": "function"
    },
    {
      "inputs": [
        {
          "internalType": "address",
          "name": "to",
          "type": "address"
        },
        {
          "internalType": "uint256",
          "name": "tokenId",
          "type": "uint256"
        }
      ],
      "name": "approve",
      "outputs": [],
      "stateMutability": "nonpayable",
      "type": "function"
    },
    {
      "inputs": [
        {
          "internalType": "address",
          "name": "owner",
          "type": "address"
        }
      ],
      "name": "balanceOf",
      "outputs": [
        {
          "internalType": "uint256",
          "name": "",
          "type": "uint256"
        }
      ],
      "stateMutability": "view",
      "type": "function"
    },
    {
      "inputs": [
        {
          "internalType": "uint256",
          "name": "tokenId",
          "type": "uint256"
        }
      ],
      "name": "getApproved",
      "outputs": [
        {
          "internalType": "address",
          "name": "",
          "type": "address"
        }
      ],
      "stateMutability": "view",
      "type": "function"
    },
    {
      "inputs": [
        {
          "internalType": "address",
          "name": "owner",
          "type": "address"
        },
        {
          "internalType": "address",
          "name": "operator",
          "type": "address"
        }
      ],
      "name": "isApprovedForAll",
      "outputs": [
        {
          "internalType": "bool",
          "name": "",
          "type": "bool"
        }
      ],
      "stateMutability": "view",
      "type": "function"
    },
    {
      "inputs": [],
      "name": "name",
      "outputs": [
        {
          "internalType": "string",
          "name": "",
          "type": "string"
        }
      ],
      "stateMutability": "view",
      "type": "function"
    },
    {
      "inputs": [],
      "name": "owner",
      "outputs": [
        {
          "internalType": "address",
          "name": "",
          "type": "address"
        }
      ],
      "stateMutability": "view",
      "type": "function"
    },
    {
      "inputs": [
        {
          "internalType": "uint256",
          "name": "tokenId",
          "type": "uint256"
        }
      ],
      "name": "ownerOf",
      "outputs": [
        {
          "internalType": "address",
          "name": "",
          "type": "address"
        }
      ],
      "stateMutability": "view",
      "type": "function"
    },
    {
      "inputs": [],
      "name": "renounceOwnership",
      "outputs": [],
      "stateMutability": "nonpayable",
      "type": "function"
    },
    {
      "inputs": [
        {
          "internalType": "address",
          "name": "from",
          "type": "address"
        },
        {
          "internalType": "address",
          "name": "to",
          "type": "address"
        },
        {
          "internalType": "uint256",
          "name": "tokenId",
          "type": "uint256"
        }
      ],
      "name": "safeTransferFrom",
      "outputs": [],
      "stateMutability": "nonpayable",
      "type": "function"
    },
    {
      "inputs": [
        {
          "internalType": "address",
          "name": "from",
          "type": "address"
        },
        {
          "internalType": "address",
          "name": "to",
          "type": "address"
        },
        {
          "internalType": "uint256",
          "name": "tokenId",
          "type": "uint256"
        },
        {
          "internalType": "bytes",
          "name": "_data",
          "type": "bytes"
        }
      ],
      "name": "safeTransferFrom",
      "outputs": [],
      "stateMutability": "nonpayable",
      "type": "function"
    },
    {
      "inputs": [
        {
          "internalType": "address",
          "name": "operator",
          "type": "address"
        },
        {
          "internalType": "bool",
          "name": "approved",
          "type": "bool"
        }
      ],
      "name": "setApprovalForAll",
      "outputs": [],
      "stateMutability": "nonpayable",
      "type": "function"
    },
    {
      "inputs": [
        {
          "internalType": "bytes4",
          "name": "interfaceId",
          "type": "bytes4"
        }
      ],
      "name": "supportsInterface",
      "outputs": [
        {
          "internalType": "bool",
          "name": "",
          "type": "bool"
        }
      ],
      "stateMutability": "view",
      "type": "function"
    },
    {
      "inputs": [],
      "name": "symbol",
      "outputs": [
        {
          "internalType": "string",
          "name": "",
          "type": "string"
        }
      ],
      "stateMutability": "view",
      "type": "function"
    },
    {
      "inputs": [
        {
          "internalType": "uint256",
          "name": "tokenId",
          "type": "uint256"
        }
      ],
      "name": "tokenURI",
      "outputs": [
        {
          "internalType": "string",
          "name": "",
          "type": "string"
        }
      ],
      "stateMutability": "view",
      "type": "function"
    },
    {
      "inputs": [
        {
          "internalType": "address",
          "name": "from",
          "type": "address"
        },
        {
          "internalType": "address",
          "name": "to",
          "type": "address"
        },
        {
          "internalType": "uint256",
          "name": "tokenId",
          "type": "uint256"
        }
      ],
      "name": "transferFrom",
      "outputs": [],
      "stateMutability": "nonpayable",
      "type": "function"
    },
    {
      "inputs": [
        {
          "internalType": "address",
          "name": "newOwner",
          "type": "address"
        }
      ],
      "name": "transferOwnership",
      "outputs": [],
      "stateMutability": "nonpayable",
      "type": "function"
    },
    {
      "inputs": [
        {
          "internalType": "int16",
          "name": "down",
          "type": "int16"
        }
      ],
      "name": "setLatitudeDownGuard",
      "outputs": [],
      "stateMutability": "nonpayable",
      "type": "function"
    },
    {
      "inputs": [
        {
          "internalType": "int16",
          "name": "up",
          "type": "int16"
        }
      ],
      "name": "setLatitudeUpGuard",
      "outputs": [],
      "stateMutability": "nonpayable",
      "type": "function"
    },
    {
      "inputs": [
        {
          "internalType": "uint8",
          "name": "level",
          "type": "uint8"
        },
        {
          "internalType": "uint256",
          "name": "tokenId",
          "type": "uint256"
        },
        {
          "internalType": "address",
          "name": "account",
          "type": "address"
        }
      ],
      "name": "updateLevel",
      "outputs": [],
      "stateMutability": "nonpayable",
      "type": "function"
    },
    {
      "inputs": [
        {
          "internalType": "string",
          "name": "link",
          "type": "string"
        },
        {
          "internalType": "uint256",
          "name": "tokenId",
          "type": "uint256"
        }
      ],
      "name": "updateLink",
      "outputs": [],
      "stateMutability": "nonpayable",
      "type": "function"
    },
    {
      "inputs": [
        {
          "internalType": "string",
          "name": "uri",
          "type": "string"
        }
      ],
      "name": "updateBaseURI",
      "outputs": [],
      "stateMutability": "nonpayable",
      "type": "function"
    },
    {
      "inputs": [],
      "name": "baseURI",
      "outputs": [
        {
          "internalType": "string",
          "name": "",
          "type": "string"
        }
      ],
      "stateMutability": "view",
      "type": "function"
    },
    {
      "inputs": [
        {
          "internalType": "address",
          "name": "minter",
          "type": "address"
        },
        {
          "internalType": "bool",
          "name": "update",
          "type": "bool"
        }
      ],
      "name": "updateMinter",
      "outputs": [],
      "stateMutability": "nonpayable",
      "type": "function"
    },
    {
      "inputs": [
        {
          "internalType": "address",
          "name": "user",
          "type": "address"
        }
      ],
      "name": "isMinter",
      "outputs": [
        {
          "internalType": "bool",
          "name": "",
          "type": "bool"
        }
      ],
      "stateMutability": "view",
      "type": "function"
    },
    {
      "inputs": [
        {
          "components": [
            {
              "components": [
                {
                  "internalType": "int16",
                  "name": "longitude",
                  "type": "int16"
                },
                {
                  "internalType": "int16",
                  "name": "latitude",
                  "type": "int16"
                },
                {
                  "internalType": "uint8",
                  "name": "level",
                  "type": "uint8"
                },
                {
                  "internalType": "string",
                  "name": "link",
                  "type": "string"
                }
              ],
              "internalType": "struct Eartho.earthoContext",
              "name": "context",
              "type": "tuple"
            },
            {
              "internalType": "address",
              "name": "to",
              "type": "address"
            }
          ],
          "internalType": "struct Eartho.mintInput",
          "name": "input",
          "type": "tuple"
        }
      ],
      "name": "mint",
      "outputs": [],
      "stateMutability": "nonpayable",
      "type": "function"
    },
    {
      "inputs": [
        {
          "internalType": "uint256",
          "name": "tokenId",
          "type": "uint256"
        }
      ],
      "name": "burn",
      "outputs": [],
      "stateMutability": "nonpayable",
      "type": "function"
    },
    {
      "inputs": [
        {
          "internalType": "address",
          "name": "user",
          "type": "address"
        }
      ],
      "name": "getEarthos",
      "outputs": [
        {
          "internalType": "uint256[]",
          "name": "",
          "type": "uint256[]"
        }
      ],
      "stateMutability": "view",
      "type": "function"
    },
    {
      "inputs": [
        {
          "internalType": "int16",
          "name": "longitude",
          "type": "int16"
        },
        {
          "internalType": "int16",
          "name": "latitude",
          "type": "int16"
        }
      ],
      "name": "checkEarthCoordinates",
      "outputs": [
        {
          "internalType": "bool",
          "name": "",
          "type": "bool"
        }
      ],
      "stateMutability": "view",
      "type": "function"
    },
    {
      "inputs": [
        {
          "internalType": "uint256",
          "name": "tokenId",
          "type": "uint256"
        }
      ],
      "name": "getNFTContext",
      "outputs": [
        {
          "components": [
            {
              "internalType": "int16",
              "name": "longitude",
              "type": "int16"
            },
            {
              "internalType": "int16",
              "name": "latitude",
              "type": "int16"
            },
            {
              "internalType": "uint8",
              "name": "level",
              "type": "uint8"
            },
            {
              "internalType": "string",
              "name": "link",
              "type": "string"
            }
          ],
          "internalType": "struct Eartho.earthoContext",
          "name": "",
          "type": "tuple"
        }
      ],
      "stateMutability": "view",
      "type": "function"
    }
  ],
  "bytecode": "0x60806040523480156200001157600080fd5b5060405162002fa138038062002fa18339810160408190526200003491620001f7565b604080518082018252600a81526922b0b93a3437b837b4b760b11b60208083019182528351808501909452600684526545415254484f60d01b90840152815191929162000084916000916200013b565b5080516200009a9060019060208401906200013b565b5050506000620000af6200013760201b60201c565b600680546001600160a01b0319166001600160a01b038316908117909155604051919250906000907f8be0079c531659141344cd1fd0a4f28419497f9722a3daafe3b4186f6b6457e0908290a35060006008558051620001179060079060208401906200013b565b50506006805463ffffffff60a01b191662709fb560a31b17905562000310565b3390565b8280546200014990620002d3565b90600052602060002090601f0160209004810192826200016d5760008555620001b8565b82601f106200018857805160ff1916838001178555620001b8565b82800160010185558215620001b8579182015b82811115620001b85782518255916020019190600101906200019b565b50620001c6929150620001ca565b5090565b5b80821115620001c65760008155600101620001cb565b634e487b7160e01b600052604160045260246000fd5b600060208083850312156200020b57600080fd5b82516001600160401b03808211156200022357600080fd5b818501915085601f8301126200023857600080fd5b8151818111156200024d576200024d620001e1565b604051601f8201601f19908116603f01168101908382118183101715620002785762000278620001e1565b8160405282815288868487010111156200029157600080fd5b600093505b82841015620002b5578484018601518185018701529285019262000296565b82841115620002c75760008684830101525b98975050505050505050565b600181811c90821680620002e857607f821691505b602082108114156200030a57634e487b7160e01b600052602260045260246000fd5b50919050565b612c8180620003206000396000f3fe608060405234801561001057600080fd5b50600436106101fb5760003560e01c806365e03b211161011a57806395d89b41116100ad578063c87b56dd1161007c578063c87b56dd14610457578063ca88db031461046a578063d3b6eb071461047d578063e985e9c51461049d578063f2fde38b146104d957600080fd5b806395d89b41146103fd578063a22cb46514610405578063aa271e1a14610418578063b88d4fde1461044457600080fd5b80637bbc9228116100e95780637bbc9228146103b35780637ccc019f146103c65780638da5cb5b146103d9578063931688cb146103ea57600080fd5b806365e03b21146103625780636c0360eb1461038257806370a082311461038a578063715018a6146103ab57600080fd5b806323b872dd1161019257806343620e711161016157806343620e7114610315578063452a827014610328578063458779681461033c5780636352211e1461034f57600080fd5b806323b872dd146102c85780632deaa457146102db57806342842e0e146102ef57806342966c681461030257600080fd5b8063095ea7b3116101ce578063095ea7b314610284578063138156df1461029957806317ba6004146102a2578063228b805b146102b557600080fd5b80630168f92a1461020057806301ffc9a71461022157806306fdde0314610244578063081812fc14610259575b600080fd5b61020961070881565b60405160019190910b81526020015b60405180910390f35b61023461022f366004612201565b6104ec565b6040519015158152602001610218565b61024c61053e565b6040516102189190612276565b61026c610267366004612289565b6105d0565b6040516001600160a01b039091168152602001610218565b6102976102923660046122be565b61066a565b005b61020961038481565b6102976102b03660046122f7565b610780565b6102976102c33660046123c0565b610841565b6102976102d6366004612405565b6108bf565b60065461020990600160a01b900460010b81565b6102976102fd366004612405565b6108f0565b610297610310366004612289565b61090b565b610297610323366004612441565b610b29565b60065461020990600160b01b900460010b81565b61023461034a36600461247d565b610bb6565b61026c61035d366004612289565b610be3565b6103756103703660046124ab565b610c5a565b60405161021891906124c6565b61024c610cc6565b61039d6103983660046124ab565b610cd5565b604051908152602001610218565b610297610d5c565b6102976103c1366004612519565b610dd0565b6102976103d4366004612557565b610eed565b6006546001600160a01b031661026c565b6102976103f8366004612592565b6112ad565b61024c611325565b610297610413366004612441565b611334565b6102346104263660046124ab565b6001600160a01b03166000908152600c602052604090205460ff1690565b6102976104523660046125c7565b6113f9565b61024c610465366004612289565b611431565b6102976104783660046122f7565b611519565b61049061048b366004612289565b6115d2565b6040516102189190612643565b6102346104ab366004612685565b6001600160a01b03918216600090815260056020908152604080832093909416825291909152205460ff1690565b6102976104e73660046124ab565b6116d6565b60006001600160e01b031982166380ac58cd60e01b148061051d57506001600160e01b03198216635b5e139f60e01b145b8061053857506301ffc9a760e01b6001600160e01b03198316145b92915050565b60606000805461054d906126b8565b80601f0160208091040260200160405190810160405280929190818152602001828054610579906126b8565b80156105c65780601f1061059b576101008083540402835291602001916105c6565b820191906000526020600020905b8154815290600101906020018083116105a957829003601f168201915b5050505050905090565b6000818152600260205260408120546001600160a01b031661064e5760405162461bcd60e51b815260206004820152602c60248201527f4552433732313a20617070726f76656420717565727920666f72206e6f6e657860448201526b34b9ba32b73a103a37b5b2b760a11b60648201526084015b60405180910390fd5b506000908152600460205260409020546001600160a01b031690565b600061067582610be3565b9050806001600160a01b0316836001600160a01b031614156106e35760405162461bcd60e51b815260206004820152602160248201527f4552433732313a20617070726f76616c20746f2063757272656e74206f776e656044820152603960f91b6064820152608401610645565b336001600160a01b03821614806106ff57506106ff81336104ab565b6107715760405162461bcd60e51b815260206004820152603860248201527f4552433732313a20617070726f76652063616c6c6572206973206e6f74206f7760448201527f6e6572206e6f7220617070726f76656420666f7220616c6c00000000000000006064820152608401610645565b61077b83836117c1565b505050565b6006546001600160a01b031633146107aa5760405162461bcd60e51b8152600401610645906126f3565b610384600182900b138015906107d357506107c961038460001961273e565b60010b8160010b12155b61081f5760405162461bcd60e51b815260206004820152601760248201527f536574204c6174697475646520446f776e2047756172640000000000000000006044820152606401610645565b6006805461ffff909216600160a01b0261ffff60a01b19909216919091179055565b803361084c82610be3565b6001600160a01b0316146108925760405162461bcd60e51b815260206004820152600d60248201526c27232a103737ba1037bbb732b960991b6044820152606401610645565b6000828152600a60209081526040909120845190916108b8916001840191870190612115565b5050505050565b6108c9338261182f565b6108e55760405162461bcd60e51b8152600401610645906127c9565b61077b838383611926565b61077b838383604051806020016040528060008152506113f9565b803361091682610be3565b6001600160a01b03161461095c5760405162461bcd60e51b815260206004820152600d60248201526c27232a103737ba1037bbb732b960991b6044820152606401610645565b33600081815260096020908152604080832080548251818502810185019093528083529093926109c3929185918301828280156109b857602002820191906000526020600020905b8154815260200190600101908083116109a4575b505050505086611ad1565b82549091508110156108b8576109d885611b16565b6000858152600a60209081526040918290205482516001600160a01b0387168152918201889052600181810b8385015262010000909104900b606082015290517f188caf104fd583b452cd5fbfb0cd9a9d8ab75cf66581c14a0bb76d14b5f07c349181900360800190a16000858152600a6020526040812054610a6890600181810b91620100009004900b611bbd565b63ffffffff81166000908152600b60209081526040808320805460ff19169055898352600a9091528120805464ffffffffff19168155919250610aae6001830182612199565b505082548390610ac09060019061281a565b81548110610ad057610ad0612831565b9060005260206000200154838381548110610aed57610aed612831565b906000526020600020018190555082805480610b0b57610b0b612847565b60019003818190600052602060002001600090559055505050505050565b6006546001600160a01b03163314610b535760405162461bcd60e51b8152600401610645906126f3565b6001600160a01b0382166000818152600c6020908152604091829020805460ff19168515159081179091558251938452908301527fc6a23a0a2412457bc174b0b04538a04d162131389a2e6bafcb3c90d104004e16910160405180910390a15050565b600080610bc38484611bbd565b63ffffffff166000908152600b602052604090205460ff16949350505050565b6000818152600260205260408120546001600160a01b0316806105385760405162461bcd60e51b815260206004820152602960248201527f4552433732313a206f776e657220717565727920666f72206e6f6e657869737460448201526832b73a103a37b5b2b760b91b6064820152608401610645565b6001600160a01b038116600090815260096020908152604091829020805483518184028101840190945280845260609392830182828015610cba57602002820191906000526020600020905b815481526020019060010190808311610ca6575b50505050509050919050565b60606007805461054d906126b8565b60006001600160a01b038216610d405760405162461bcd60e51b815260206004820152602a60248201527f4552433732313a2062616c616e636520717565727920666f7220746865207a65604482015269726f206164647265737360b01b6064820152608401610645565b506001600160a01b031660009081526003602052604090205490565b6006546001600160a01b03163314610d865760405162461bcd60e51b8152600401610645906126f3565b6006546040516000916001600160a01b0316907f8be0079c531659141344cd1fd0a4f28419497f9722a3daafe3b4186f6b6457e0908390a3600680546001600160a01b0319169055565b336000908152600c602052604090205460ff16610e2f5760405162461bcd60e51b815260206004820181905260248201527f557064617465206c6576656c206661696c20666f72206e6f74206d696e7465726044820152606401610645565b806001600160a01b0316610e4283610be3565b6001600160a01b031614610ebe5760405162461bcd60e51b815260206004820152603860248201527f557064617465206c6576656c206661696c20666f7220746865206f776e65722060448201527f6973206e6f742062656c6f6e6720746f206163636f756e7400000000000000006064820152608401610645565b506000908152600a60205260409020805460ff9092166401000000000264ff0000000019909216919091179055565b336000908152600c602052604090205460ff16610f4c5760405162461bcd60e51b815260206004820181905260248201527f4e4654206d696e74206661696c20666f7220696e76616c6964206d696e7465726044820152606401610645565b6001610708610f5b838061285d565b610f699060208101906122f7565b60010b1380610fa15750610f8161070860001961273e565b60010b610f8e838061285d565b610f9c9060208101906122f7565b60010b125b15610faa575060005b600654600160b01b900460010b610fc1838061285d565b610fd29060408101906020016122f7565b60010b13806110095750600654600160a01b900460010b610ff3838061285d565b6110049060408101906020016122f7565b60010b125b15611012575060005b806110745760405162461bcd60e51b815260206004820152602c60248201527f4e4654206d696e74206661696c20666f7220696e76616c6964206c6f6e67697460448201526b7564652f6c6174697475646560a01b6064820152608401610645565b60006110b1611083848061285d565b6110919060208101906122f7565b61109b858061285d565b6110ac9060408101906020016122f7565b611bbd565b63ffffffff81166000908152600b602052604090205490915060ff16156111315760405162461bcd60e51b815260206004820152602e60248201527f4e4654206d696e74206661696c20666f72206c6f6e6769747564652f6c61746960448201526d1d1d5919481a185cc8195e1a5cdd60921b6064820152608401610645565b60085461113f90600161287d565b60085561115d61115560408501602086016124ab565b600854611c0b565b63ffffffff81166000908152600b60209081526040808320805460ff19166001179055600992916111929187019087016124ab565b6001600160a01b03168152602080820192909252604001600090812060085481546001810183559183529290912001556111cc838061285d565b6008546000908152600a602052604090206111e7828261299b565b507f325b95e6da0578c984fffdd69c853da3a6f1c2c47cfc7a7f69fdeb82f2025bc8905061121b60408501602086016124ab565b600854611228868061285d565b6112369060208101906122f7565b611240878061285d565b6112519060408101906020016122f7565b61125b888061285d565b61126c906060810190604001612a6a565b604080516001600160a01b039690961686526020860194909452600192830b85850152910b606084015260ff166080830152519081900360a00190a1505050565b6006546001600160a01b031633146112d75760405162461bcd60e51b8152600401610645906126f3565b80516112ea906007906020840190612115565b507f157d450c8fb1377294d9db75af1de2753efc52d8e5578551d70d2c7d9cd74df98160405161131a9190612276565b60405180910390a150565b60606001805461054d906126b8565b6001600160a01b03821633141561138d5760405162461bcd60e51b815260206004820152601960248201527f4552433732313a20617070726f766520746f2063616c6c6572000000000000006044820152606401610645565b3360008181526005602090815260408083206001600160a01b03871680855290835292819020805460ff191686151590811790915590519081529192917f17307eab39ab6107e8899845ad3d59bd9653f200f220920489ca2b5937696c31910160405180910390a35050565b611403338361182f565b61141f5760405162461bcd60e51b8152600401610645906127c9565b61142b84848484611c29565b50505050565b6000818152600260205260409020546060906001600160a01b03166114b05760405162461bcd60e51b815260206004820152602f60248201527f4552433732314d657461646174613a2055524920717565727920666f72206e6f60448201526e3732bc34b9ba32b73a103a37b5b2b760891b6064820152608401610645565b60006114c760408051602081019091526000815290565b905060008151116114e75760405180602001604052806000815250611512565b806114f184611c5c565b604051602001611502929190612a87565b6040516020818303038152906040525b9392505050565b6006546001600160a01b031633146115435760405162461bcd60e51b8152600401610645906126f3565b610384600182900b1380159061156c575061156261038460001961273e565b60010b8160010b12155b6115b05760405162461bcd60e51b815260206004820152601560248201527414d95d0813185d1a5d1d591948155c0811dd585c99605a1b6044820152606401610645565b6006805461ffff909216600160b01b0261ffff60b01b19909216919091179055565b60408051608081018252600080825260208201819052918101919091526060808201526000828152600a602090815260409182902082516080810184528154600181810b8352620100008204810b94830194909452640100000000900460ff1693810193909352908101805460608401919061164d906126b8565b80601f0160208091040260200160405190810160405280929190818152602001828054611679906126b8565b80156116c65780601f1061169b576101008083540402835291602001916116c6565b820191906000526020600020905b8154815290600101906020018083116116a957829003601f168201915b5050505050815250509050919050565b6006546001600160a01b031633146117005760405162461bcd60e51b8152600401610645906126f3565b6001600160a01b0381166117655760405162461bcd60e51b815260206004820152602660248201527f4f776e61626c653a206e6577206f776e657220697320746865207a65726f206160448201526564647265737360d01b6064820152608401610645565b6006546040516001600160a01b038084169216907f8be0079c531659141344cd1fd0a4f28419497f9722a3daafe3b4186f6b6457e090600090a3600680546001600160a01b0319166001600160a01b0392909216919091179055565b600081815260046020526040902080546001600160a01b0319166001600160a01b03841690811790915581906117f682610be3565b6001600160a01b03167f8c5be1e5ebec7d5bd14f71427d1e84f3dd0314c0f7b2291e5b200ac8c7c3b92560405160405180910390a45050565b6000818152600260205260408120546001600160a01b03166118a85760405162461bcd60e51b815260206004820152602c60248201527f4552433732313a206f70657261746f7220717565727920666f72206e6f6e657860448201526b34b9ba32b73a103a37b5b2b760a11b6064820152608401610645565b60006118b383610be3565b9050806001600160a01b0316846001600160a01b031614806118ee5750836001600160a01b03166118e3846105d0565b6001600160a01b0316145b8061191e57506001600160a01b0380821660009081526005602090815260408083209388168352929052205460ff165b949350505050565b826001600160a01b031661193982610be3565b6001600160a01b0316146119a15760405162461bcd60e51b815260206004820152602960248201527f4552433732313a207472616e73666572206f6620746f6b656e2074686174206960448201526839903737ba1037bbb760b91b6064820152608401610645565b6001600160a01b038216611a035760405162461bcd60e51b8152602060048201526024808201527f4552433732313a207472616e7366657220746f20746865207a65726f206164646044820152637265737360e01b6064820152608401610645565b611a0e838383611d5a565b611a196000826117c1565b6001600160a01b0383166000908152600360205260408120805460019290611a4290849061281a565b90915550506001600160a01b0382166000908152600360205260408120805460019290611a7090849061287d565b909155505060008181526002602052604080822080546001600160a01b0319166001600160a01b0386811691821790925591518493918716917fddf252ad1be2c89b69c2b068fc378daa952ba7f163c4a11628f55a4df523b3ef91a4505050565b6000805b83518110156115125782848281518110611af157611af1612831565b60200260200101511415611b0457611512565b80611b0e81612ab6565b915050611ad5565b6000611b2182610be3565b9050611b2f81600084611d5a565b611b3a6000836117c1565b6001600160a01b0381166000908152600360205260408120805460019290611b6390849061281a565b909155505060008281526002602052604080822080546001600160a01b0319169055518391906001600160a01b038416907fddf252ad1be2c89b69c2b068fc378daa952ba7f163c4a11628f55a4df523b3ef908390a45050565b600080611bcc61070885612ad1565b90506000611bdc61038485612ad1565b9050818161ffff80821690611bf690841662010000612b16565b611c009190612b42565b979650505050505050565b611c25828260405180602001604052806000815250611e96565b5050565b611c34848484611926565b611c4084848484611ec9565b61142b5760405162461bcd60e51b815260040161064590612b61565b606081611c805750506040805180820190915260018152600360fc1b602082015290565b8160005b8115611caa5780611c9481612ab6565b9150611ca39050600a83612bc9565b9150611c84565b60008167ffffffffffffffff811115611cc557611cc5612314565b6040519080825280601f01601f191660200182016040528015611cef576020820181803683370190505b5090505b841561191e57611d0460018361281a565b9150611d11600a86612bdd565b611d1c90603061287d565b60f81b818381518110611d3157611d31612831565b60200101906001600160f81b031916908160001a905350611d53600a86612bc9565b9450611cf3565b6001600160a01b0383161580611d7757506001600160a01b038216155b15611d8157505050565b6001600160a01b03808416600090815260096020908152604080832093861683528083208454825181850281018501909352808352909392611dfa92918691830182828015611def57602002820191906000526020600020905b815481526020019060010190808311611ddb575b505050505085611ad1565b8354909150811015611e8e5782548390611e169060019061281a565b81548110611e2657611e26612831565b9060005260206000200154838281548110611e4357611e43612831565b906000526020600020018190555082805480611e6157611e61612847565b60008281526020808220830160001990810183905590920190925583546001810185558483529120018490555b505050505050565b611ea08383611fc7565b611ead6000848484611ec9565b61077b5760405162461bcd60e51b815260040161064590612b61565b60006001600160a01b0384163b15611fbc57604051630a85bd0160e11b81526001600160a01b0385169063150b7a0290611f0d903390899088908890600401612bf1565b6020604051808303816000875af1925050508015611f48575060408051601f3d908101601f19168201909252611f4591810190612c2e565b60015b611fa2573d808015611f76576040519150601f19603f3d011682016040523d82523d6000602084013e611f7b565b606091505b508051611f9a5760405162461bcd60e51b815260040161064590612b61565b805181602001fd5b6001600160e01b031916630a85bd0160e11b14905061191e565b506001949350505050565b6001600160a01b03821661201d5760405162461bcd60e51b815260206004820181905260248201527f4552433732313a206d696e7420746f20746865207a65726f20616464726573736044820152606401610645565b6000818152600260205260409020546001600160a01b0316156120825760405162461bcd60e51b815260206004820152601c60248201527f4552433732313a20746f6b656e20616c7265616479206d696e746564000000006044820152606401610645565b61208e60008383611d5a565b6001600160a01b03821660009081526003602052604081208054600192906120b790849061287d565b909155505060008181526002602052604080822080546001600160a01b0319166001600160a01b03861690811790915590518392907fddf252ad1be2c89b69c2b068fc378daa952ba7f163c4a11628f55a4df523b3ef908290a45050565b828054612121906126b8565b90600052602060002090601f0160209004810192826121435760008555612189565b82601f1061215c57805160ff1916838001178555612189565b82800160010185558215612189579182015b8281111561218957825182559160200191906001019061216e565b506121959291506121d6565b5090565b5080546121a5906126b8565b6000825580601f106121b5575050565b601f0160209004906000526020600020908101906121d391906121d6565b50565b5b8082111561219557600081556001016121d7565b6001600160e01b0319811681146121d357600080fd5b60006020828403121561221357600080fd5b8135611512816121eb565b60005b83811015612239578181015183820152602001612221565b8381111561142b5750506000910152565b6000815180845261226281602086016020860161221e565b601f01601f19169290920160200192915050565b602081526000611512602083018461224a565b60006020828403121561229b57600080fd5b5035919050565b80356001600160a01b03811681146122b957600080fd5b919050565b600080604083850312156122d157600080fd5b6122da836122a2565b946020939093013593505050565b8060010b81146121d357600080fd5b60006020828403121561230957600080fd5b8135611512816122e8565b634e487b7160e01b600052604160045260246000fd5b600067ffffffffffffffff8084111561234557612345612314565b604051601f8501601f19908116603f0116810190828211818310171561236d5761236d612314565b8160405280935085815286868601111561238657600080fd5b858560208301376000602087830101525050509392505050565b600082601f8301126123b157600080fd5b6115128383356020850161232a565b600080604083850312156123d357600080fd5b823567ffffffffffffffff8111156123ea57600080fd5b6123f6858286016123a0565b95602094909401359450505050565b60008060006060848603121561241a57600080fd5b612423846122a2565b9250612431602085016122a2565b9150604084013590509250925092565b6000806040838503121561245457600080fd5b61245d836122a2565b91506020830135801515811461247257600080fd5b809150509250929050565b6000806040838503121561249057600080fd5b823561249b816122e8565b91506020830135612472816122e8565b6000602082840312156124bd57600080fd5b611512826122a2565b6020808252825182820181905260009190848201906040850190845b818110156124fe578351835292840192918401916001016124e2565b50909695505050505050565b60ff811681146121d357600080fd5b60008060006060848603121561252e57600080fd5b83356125398161250a565b92506020840135915061254e604085016122a2565b90509250925092565b60006020828403121561256957600080fd5b813567ffffffffffffffff81111561258057600080fd5b82016040818503121561151257600080fd5b6000602082840312156125a457600080fd5b813567ffffffffffffffff8111156125bb57600080fd5b61191e848285016123a0565b600080600080608085870312156125dd57600080fd5b6125e6856122a2565b93506125f4602086016122a2565b925060408501359150606085013567ffffffffffffffff81111561261757600080fd5b8501601f8101871361262857600080fd5b6126378782356020840161232a565b91505092959194509250565b60208152815160010b6020820152602082015160010b604082015260ff60408301511660608201526000606083015160808084015261191e60a084018261224a565b6000806040838503121561269857600080fd5b6126a1836122a2565b91506126af602084016122a2565b90509250929050565b600181811c908216806126cc57607f821691505b602082108114156126ed57634e487b7160e01b600052602260045260246000fd5b50919050565b6020808252818101527f4f776e61626c653a2063616c6c6572206973206e6f7420746865206f776e6572604082015260600190565b634e487b7160e01b600052601160045260246000fd5b60008160010b8360010b617fff60008213600084138383048511828216161561276957612769612728565b617fff19600085128281168783058712161561278757612787612728565b600087129250858205871284841616156127a3576127a3612728565b858505871281841616156127b9576127b9612728565b5050509290910295945050505050565b60208082526031908201527f4552433732313a207472616e736665722063616c6c6572206973206e6f74206f6040820152701ddb995c881b9bdc88185c1c1c9bdd9959607a1b606082015260800190565b60008282101561282c5761282c612728565b500390565b634e487b7160e01b600052603260045260246000fd5b634e487b7160e01b600052603160045260246000fd5b60008235607e1983360301811261287357600080fd5b9190910192915050565b6000821982111561289057612890612728565b500190565b601f82111561077b57600081815260208120601f850160051c810160208610156128bc5750805b601f850160051c820191505b81811015611e8e578281556001016128c8565b67ffffffffffffffff8311156128f3576128f3612314565b6129078361290183546126b8565b83612895565b6000601f84116001811461293b57600085156129235750838201355b600019600387901b1c1916600186901b1783556108b8565b600083815260209020601f19861690835b8281101561296c578685013582556020948501946001909201910161294c565b50868210156129895760001960f88860031b161c19848701351681555b505060018560011b0183555050505050565b81356129a6816122e8565b815461ffff82811661ffff19831617845560208501356129c5816122e8565b8060101b9050818416935063ffff000091508082168463ffffffff1985161717855560408601356129f58161250a565b911664ffffffffff19929092169092171760209190911b64ff0000000016178155606082013536839003601e19018112612a2e57600080fd5b8201803567ffffffffffffffff811115612a4757600080fd5b602082019150803603821315612a5c57600080fd5b61142b8183600186016128db565b600060208284031215612a7c57600080fd5b81356115128161250a565b60008351612a9981846020880161221e565b835190830190612aad81836020880161221e565b01949350505050565b6000600019821415612aca57612aca612728565b5060010190565b60008160010b8360010b6000821282617fff03821381151615612af657612af6612728565b82617fff19038212811615612b0d57612b0d612728565b50019392505050565b600063ffffffff80831681851681830481118215151615612b3957612b39612728565b02949350505050565b600063ffffffff808316818516808303821115612aad57612aad612728565b60208082526032908201527f4552433732313a207472616e7366657220746f206e6f6e20455243373231526560408201527131b2b4bb32b91034b6b83632b6b2b73a32b960711b606082015260800190565b634e487b7160e01b600052601260045260246000fd5b600082612bd857612bd8612bb3565b500490565b600082612bec57612bec612bb3565b500690565b6001600160a01b0385811682528416602082015260408101839052608060608201819052600090612c249083018461224a565b9695505050505050565b600060208284031215612c4057600080fd5b8151611512816121eb56fea26469706673582212208bb03287c56575d51d472f41193d19bcb855c4e254a1f1ad559280f7ff9645a364736f6c634300080b0033",
  "immutableReferences": {},
  "source": "// SPDX-License-Identifier: agpl-3.0\r\npragma solidity ^0.8.0;\r\n\r\nimport \"../dependencies/contracts/token/ERC20/extensions/IERC20Metadata.sol\";\r\nimport \"../dependencies/contracts/token/ERC721/ERC721.sol\";\r\nimport \"../dependencies/contracts/access/Ownable.sol\";\r\nimport \"../utils/VersionedInitializable.sol\";\r\n\r\ncontract Eartho is ERC721, Ownable {\r\n\r\n    /**** event ****/\r\n    event UpdateMinter(address minter, bool update);\r\n    event ChangeOwner(address from, address to);\r\n    event UpdateBaseURI(string uri);\r\n    event Mint(address to, uint256 tokenId, int16 longitude, int16 latitude, uint8 level);\r\n    event Burn(address owner, uint256 tokenId, int16 longitude, int16 latitude);\r\n\r\n    modifier nftOwner(uint256 tokenId) {\r\n        require(ownerOf(tokenId) == msg.sender, \"NFT not owner\");\r\n        _;\r\n    }\r\n\r\n    /**** the key parameter for earth ****/\r\n\r\n    /*\r\n    * the context of earth\r\n    *  longitude for earth: 0 - 180 W; - 0 - 180 E\r\n    *  latitude for earth: 0-90 N; 0-90 S\r\n    */\r\n    struct earthoContext {\r\n        int16 longitude;                // [-1800, 1800]: -1800 mean: 180.00'W; 121 mean: 12.10'E\r\n        int16 latitude;                 // [-900, 900]: -900 mean: 90.00'S; 121 mead: 12.10'N\r\n        uint8 level;                    // the level for nft 1,2,3 ... smaller value higher level\r\n        string link;                    // the link for nft: https://www.xxxx.com\r\n    }\r\n\r\n    struct mintInput {\r\n        earthoContext context;\r\n        address to;\r\n    }\r\n\r\n    /**** the variable of earth ****/\r\n    int16 public constant LONGITUDE_MAX = 1800;\r\n    int16 public constant LATITUDE_MAX = 900;\r\n    int16 public LATITUDE_DOWN_GUARD;\r\n    int16 public LATITUDE_UP_GUARD;\r\n    // base uri for eartho\r\n    string private _baseUri;\r\n    // the index of token\r\n    uint256 private _tokenId;\r\n\r\n    // earthos set: key is owner; value is the nft set for owner\r\n    mapping(address => uint256[]) private _earthos;\r\n    // earth context set for nft: key is nft tokenId, value is the context of earth\r\n    mapping(uint256 => earthoContext) private _tokens;\r\n    /*\r\n    * indicates the nft has been minted:\r\n    *   key is coordinate: ( longitude+1800 * (2**16) + latitude+900)\r\n    *   value is minted status ( bool: mint; false: no mint )\r\n    */\r\n    mapping(uint32 => bool) private _nfts;\r\n    // the minter who can mint NFT\r\n    mapping(address => bool) private _minters;\r\n\r\n    /**** function for oil Empire land ****/\r\n    constructor(\r\n        string memory uri\r\n    ) ERC721(\"Earthopoin\", \"EARTHO\") {\r\n        _tokenId = 0;\r\n        _baseUri = uri;\r\n\r\n        LATITUDE_DOWN_GUARD = -600;\r\n        LATITUDE_UP_GUARD = 900;\r\n    }\r\n\r\n    /*\r\n    * @dev setLatitudeDownGuard set the down guard of Latitude\r\n    */\r\n    function setLatitudeDownGuard(int16 down) external onlyOwner {\r\n        require((down <= LATITUDE_MAX && down >= -1*LATITUDE_MAX), \"Set Latitude Down Guard\");\r\n        LATITUDE_DOWN_GUARD = down;\r\n    }\r\n\r\n    /*\r\n    * @dev setLatitudeUpGuard set the up guard of Latitude\r\n    */\r\n    function setLatitudeUpGuard(int16 up) external onlyOwner {\r\n        require((up <= LATITUDE_MAX && up >= -1*LATITUDE_MAX), \"Set Latitude Up Guard\");\r\n        LATITUDE_UP_GUARD = up;\r\n    }\r\n\r\n    /*\r\n    * @dev updateLevel update the level of tokenId\r\n    * @params: level for nft\r\n    * @params: tokenId for the index of nft\r\n    * @params: account who is the owner of nft\r\n    */\r\n    function updateLevel(uint8 level, uint256 tokenId, address account) external {\r\n        require(_minters[_msgSender()], \"Update level fail for not minter\");\r\n        require(ownerOf(tokenId) == account, \"Update level fail for the owner is not belong to account\");\r\n        earthoContext storage context = _tokens[tokenId];\r\n        context.level = level;\r\n    }\r\n\r\n    /*\r\n    * @dev updateLink update the link of tokenId\r\n    * @params: link for nft\r\n    * @params: tokenId for the index of nft\r\n    */\r\n    function updateLink(string memory link, uint256 tokenId) external nftOwner(tokenId) {\r\n        earthoContext storage context = _tokens[tokenId];\r\n        context.link = link;\r\n    }\r\n\r\n    /*\r\n    * @dev updateBaseURI update base uri for oil Empire Land by owner\r\n    */\r\n    function updateBaseURI(string memory uri) external onlyOwner {\r\n        _baseUri = uri;\r\n        emit UpdateBaseURI(uri);\r\n    }\r\n\r\n    /*\r\n    * @dev baseURI get base uri for nft\r\n    */\r\n    function baseURI() public view returns (string memory) {\r\n        return _baseUri;\r\n    }\r\n\r\n    /*\r\n    * @dev updateMinter: update minter for eartho nft by owner\r\n    * @params: minter who is own/remove the power of mint\r\n    * @params: update true is own; false is remove\r\n    */\r\n    function updateMinter(address minter, bool update) external onlyOwner {\r\n        _minters[minter] = update;\r\n        emit UpdateMinter(minter, update);\r\n    }\r\n\r\n    /*\r\n    * @dev isMinter: check user is minter\r\n    *   return: true is minter; false is no minter\r\n    */\r\n    function isMinter(address user) public view returns(bool) {\r\n        return _minters[user];\r\n    }\r\n\r\n    /*\r\n    * @dev mint: mint the eartho nft for user\r\n    * @params input: the initialize params for eartho\r\n    */\r\n    function mint(mintInput calldata input) external {\r\n        require(_minters[_msgSender()], \"NFT mint fail for invalid minter\");\r\n        bool isValid = true;\r\n\r\n        if ( (input.context.longitude > LONGITUDE_MAX) || (input.context.longitude < (-1*LONGITUDE_MAX)) ) {\r\n            isValid = false;\r\n        }\r\n        if ( (input.context.latitude > LATITUDE_UP_GUARD) || (input.context.latitude < LATITUDE_DOWN_GUARD) ) {\r\n            isValid = false;\r\n        }\r\n        require(isValid, \"NFT mint fail for invalid longitude/latitude\");\r\n\r\n        uint32 local = _computeLocal(input.context.longitude, input.context.latitude);\r\n        require(!_nfts[local], \"NFT mint fail for longitude/latitude has exist\");\r\n\r\n        _tokenId = _tokenId + 1;\r\n        _safeMint(input.to, _tokenId);\r\n\r\n        _nfts[local] = true;\r\n        _earthos[input.to].push(_tokenId);\r\n        _tokens[_tokenId] = input.context;\r\n\r\n        emit Mint(input.to, _tokenId, input.context.longitude, input.context.latitude, input.context.level);\r\n    }\r\n\r\n    /*\r\n    * @dev burn: burn the oil empire land nft by owner\r\n    * @params tokenId: the unique identification for nft\r\n    */\r\n    function burn(uint256 tokenId) external nftOwner(tokenId) {\r\n        address user = _msgSender();\r\n        uint256[] storage eartho = _earthos[user];\r\n        uint256 i = _findTokenId(eartho, tokenId);\r\n\r\n        if ( i < eartho.length ) {\r\n            _burn(tokenId);\r\n            emit Burn(user, tokenId, _tokens[tokenId].longitude, _tokens[tokenId].latitude);\r\n            uint32 local = _computeLocal(_tokens[tokenId].longitude, _tokens[tokenId].latitude);\r\n            delete _nfts[local];\r\n            delete _tokens[tokenId];\r\n\r\n            eartho[i] = eartho[eartho.length - 1];\r\n            eartho.pop();\r\n        }\r\n    }\r\n\r\n    /*\r\n    * @dev get the set eratho of msg.sender\r\n    *  return the set of tokenId\r\n    */\r\n    function getEarthos(address user) public view returns (uint256[] memory) {\r\n        return _earthos[user];\r\n    }\r\n\r\n    /*\r\n    * @dev checkEarthCoordinates check coordinates of earth by longitude and latitude\r\n    * return: true has been minted or else false\r\n    */\r\n    function checkEarthCoordinates(int16 longitude, int16 latitude) public view returns(bool) {\r\n        uint32 local = _computeLocal(longitude, latitude);\r\n        return _nfts[local];\r\n    }\r\n\r\n    /*\r\n    * @dev getNFTContext obtain the context of nft by tokenId\r\n    */\r\n    function getNFTContext(uint256 tokenId) public view returns(earthoContext memory) {\r\n        return _tokens[tokenId];\r\n    }\r\n\r\n    // _beforeTokenTransfer will update tokenId in the set of eartho for from and to\r\n    function _beforeTokenTransfer(address from, address to, uint256 tokenId) internal virtual override {\r\n        if ( from == address(0) || to == address(0) )\r\n            return;\r\n\r\n        uint256[] storage earthoFrom = _earthos[from];\r\n        uint256[] storage earthoTo = _earthos[to];\r\n        uint256 i = _findTokenId(earthoFrom, tokenId);\r\n\r\n        if ( i < earthoFrom.length ) {\r\n            earthoFrom[i] = earthoFrom[earthoFrom.length - 1];\r\n            earthoFrom.pop();\r\n            earthoTo.push(tokenId);\r\n        }\r\n    }\r\n\r\n    // compute local by longitude and latitude with our policy\r\n    function _computeLocal(int16 longitude, int16 latitude) internal virtual pure returns(uint32) {\r\n        int16 i16_longitude = longitude + LONGITUDE_MAX;\r\n        int16 i16_latitude = latitude + LATITUDE_MAX;\r\n        uint16 u16_longitude = uint16(i16_longitude);\r\n        uint16 u16_latitude = uint16(i16_latitude);\r\n        return (uint32(u16_longitude))*(2**16) + uint32(u16_latitude);\r\n    }\r\n\r\n    // _findTokenId to find tokenId in user earthos\r\n    function _findTokenId(uint256[] memory eartho, uint256 tokenId) internal virtual returns(uint256) {\r\n        uint256 i = 0;\r\n\r\n        while ( i < eartho.length ) {\r\n            if (eartho[i] == tokenId) {\r\n                break;\r\n            } else {\r\n                i++;\r\n            }\r\n        }\r\n        return i;\r\n    }\r\n}",
  "sourcePath": "E:\\my_work\\Blockchain\\Polylend\\core\\Earth_token\\contracts\\token\\Eartho.sol",
  "compiler": {
    "name": "solc",
    "version": "0.8.11+commit.d7f03943.Emscripten.clang"
  },
  "schemaVersion": "3.4.4",
  "updatedAt": "2022-01-29T04:49:59.133Z",
  "devdoc": {
    "kind": "dev",
    "methods": {
      "approve(address,uint256)": {
        "details": "See {IERC721-approve}."
      },
      "balanceOf(address)": {
        "details": "See {IERC721-balanceOf}."
      },
      "getApproved(uint256)": {
        "details": "See {IERC721-getApproved}."
      },
      "isApprovedForAll(address,address)": {
        "details": "See {IERC721-isApprovedForAll}."
      },
      "name()": {
        "details": "See {IERC721Metadata-name}."
      },
      "owner()": {
        "details": "Returns the address of the current owner."
      },
      "ownerOf(uint256)": {
        "details": "See {IERC721-ownerOf}."
      },
      "renounceOwnership()": {
        "details": "Leaves the contract without owner. It will not be possible to call `onlyOwner` functions anymore. Can only be called by the current owner. NOTE: Renouncing ownership will leave the contract without an owner, thereby removing any functionality that is only available to the owner."
      },
      "safeTransferFrom(address,address,uint256)": {
        "details": "See {IERC721-safeTransferFrom}."
      },
      "safeTransferFrom(address,address,uint256,bytes)": {
        "details": "See {IERC721-safeTransferFrom}."
      },
      "setApprovalForAll(address,bool)": {
        "details": "See {IERC721-setApprovalForAll}."
      },
      "supportsInterface(bytes4)": {
        "details": "See {IERC165-supportsInterface}."
      },
      "symbol()": {
        "details": "See {IERC721Metadata-symbol}."
      },
      "tokenURI(uint256)": {
        "details": "See {IERC721Metadata-tokenURI}."
      },
      "transferFrom(address,address,uint256)": {
        "details": "See {IERC721-transferFrom}."
      },
      "transferOwnership(address)": {
        "details": "Transfers ownership of the contract to a new account (`newOwner`). Can only be called by the current owner."
      }
    },
    "version": 1
  },
  "userdoc": {
    "kind": "user",
    "methods": {},
    "version": 1
  }
}