{
  "contractName": "EarthoExchange",
  "abi": [
    {
      "inputs": [
        {
          "internalType": "address",
          "name": "swapV2Router",
          "type": "address"
        },
        {
          "internalType": "address",
          "name": "eartho",
          "type": "address"
        },
        {
          "internalType": "address",
          "name": "weth",
          "type": "address"
        },
        {
          "internalType": "address[]",
          "name": "usd",
          "type": "address[]"
        },
        {
          "internalType": "address",
          "name": "recipient",
          "type": "address"
        }
      ],
      "stateMutability": "nonpayable",
      "type": "constructor"
    },
    {
      "anonymous": false,
      "inputs": [
        {
          "indexed": true,
          "internalType": "address",
          "name": "previousOwner",
          "type": "address"
        },
        {
          "indexed": true,
          "internalType": "address",
          "name": "newOwner",
          "type": "address"
        }
      ],
      "name": "OwnershipTransferred",
      "type": "event"
    },
    {
      "anonymous": false,
      "inputs": [
        {
          "indexed": false,
          "internalType": "address",
          "name": "user",
          "type": "address"
        },
        {
          "indexed": false,
          "internalType": "address",
          "name": "asset",
          "type": "address"
        },
        {
          "indexed": false,
          "internalType": "uint256",
          "name": "amount",
          "type": "uint256"
        }
      ],
      "name": "Purchase",
      "type": "event"
    },
    {
      "inputs": [],
      "name": "PRICE_BASE",
      "outputs": [
        {
          "internalType": "uint32",
          "name": "",
          "type": "uint32"
        }
      ],
      "stateMutability": "view",
      "type": "function"
    },
    {
      "inputs": [],
      "name": "_eartho",
      "outputs": [
        {
          "internalType": "contract Eartho",
          "name": "",
          "type": "address"
        }
      ],
      "stateMutability": "view",
      "type": "function"
    },
    {
      "inputs": [],
      "name": "_purchasePrice",
      "outputs": [
        {
          "internalType": "uint32",
          "name": "",
          "type": "uint32"
        }
      ],
      "stateMutability": "view",
      "type": "function"
    },
    {
      "inputs": [],
      "name": "_recipient",
      "outputs": [
        {
          "internalType": "address",
          "name": "",
          "type": "address"
        }
      ],
      "stateMutability": "view",
      "type": "function"
    },
    {
      "inputs": [],
      "name": "_uniswapV2Router",
      "outputs": [
        {
          "internalType": "contract IUniswapV2Router02",
          "name": "",
          "type": "address"
        }
      ],
      "stateMutability": "view",
      "type": "function"
    },
    {
      "inputs": [
        {
          "internalType": "uint256",
          "name": "",
          "type": "uint256"
        }
      ],
      "name": "_usd",
      "outputs": [
        {
          "internalType": "address",
          "name": "",
          "type": "address"
        }
      ],
      "stateMutability": "view",
      "type": "function"
    },
    {
      "inputs": [],
      "name": "_weth",
      "outputs": [
        {
          "internalType": "contract IWETH",
          "name": "",
          "type": "address"
        }
      ],
      "stateMutability": "view",
      "type": "function"
    },
    {
      "inputs": [],
      "name": "owner",
      "outputs": [
        {
          "internalType": "address",
          "name": "",
          "type": "address"
        }
      ],
      "stateMutability": "view",
      "type": "function"
    },
    {
      "inputs": [],
      "name": "renounceOwnership",
      "outputs": [],
      "stateMutability": "nonpayable",
      "type": "function"
    },
    {
      "inputs": [
        {
          "internalType": "address",
          "name": "newOwner",
          "type": "address"
        }
      ],
      "name": "transferOwnership",
      "outputs": [],
      "stateMutability": "nonpayable",
      "type": "function"
    },
    {
      "inputs": [
        {
          "internalType": "uint32",
          "name": "price",
          "type": "uint32"
        }
      ],
      "name": "setPurchasePrice",
      "outputs": [],
      "stateMutability": "nonpayable",
      "type": "function"
    },
    {
      "inputs": [
        {
          "internalType": "address",
          "name": "asset",
          "type": "address"
        },
        {
          "internalType": "uint256",
          "name": "amount",
          "type": "uint256"
        },
        {
          "components": [
            {
              "internalType": "int16",
              "name": "longitude",
              "type": "int16"
            },
            {
              "internalType": "int16",
              "name": "latitude",
              "type": "int16"
            },
            {
              "internalType": "string",
              "name": "link",
              "type": "string"
            },
            {
              "internalType": "address",
              "name": "to",
              "type": "address"
            }
          ],
          "internalType": "struct EarthoExchange.purchaseInput",
          "name": "input",
          "type": "tuple"
        }
      ],
      "name": "purchaseByToken",
      "outputs": [],
      "stateMutability": "nonpayable",
      "type": "function"
    },
    {
      "inputs": [
        {
          "components": [
            {
              "internalType": "int16",
              "name": "longitude",
              "type": "int16"
            },
            {
              "internalType": "int16",
              "name": "latitude",
              "type": "int16"
            },
            {
              "internalType": "string",
              "name": "link",
              "type": "string"
            },
            {
              "internalType": "address",
              "name": "to",
              "type": "address"
            }
          ],
          "internalType": "struct EarthoExchange.purchaseInput",
          "name": "input",
          "type": "tuple"
        }
      ],
      "name": "purchaseByETH",
      "outputs": [],
      "stateMutability": "payable",
      "type": "function"
    }
  ],
  "bytecode": "0x60e06040523480156200001157600080fd5b5060405162001ae338038062001ae3833981016040819052620000349162000177565b600080546001600160a01b031916339081178255604051909182917f8be0079c531659141344cd1fd0a4f28419497f9722a3daafe3b4186f6b6457e0908290a3506001600160a01b0385811660805284811660a052831660c0526002805463ffffffff60a01b1916601960a21b17905560005b825181101562000118576001838281518110620000c857620000c862000297565b60209081029190910181015182546001810184556000938452919092200180546001600160a01b0319166001600160a01b03909216919091179055806200010f81620002ad565b915050620000a7565b50600280546001600160a01b0319166001600160a01b039290921691909117905550620002d792505050565b80516001600160a01b03811681146200015c57600080fd5b919050565b634e487b7160e01b600052604160045260246000fd5b600080600080600060a086880312156200019057600080fd5b6200019b8662000144565b94506020620001ac81880162000144565b9450620001bc6040880162000144565b60608801519094506001600160401b0380821115620001da57600080fd5b818901915089601f830112620001ef57600080fd5b81518181111562000204576200020462000161565b8060051b604051601f19603f830116810181811085821117156200022c576200022c62000161565b60405291825284820192508381018501918c8311156200024b57600080fd5b938501935b828510156200027457620002648562000144565b8452938501939285019262000250565b8097505050505050506200028b6080870162000144565b90509295509295909350565b634e487b7160e01b600052603260045260246000fd5b6000600019821415620002d057634e487b7160e01b600052601160045260246000fd5b5060010190565b60805160a05160c0516117b262000331600039600081816101a901528181610454015281816104cb01528181610ad20152610b3f01526000818161029401526108880152600081816101080152610ca301526117b26000f3fe6080604052600436106100c25760003560e01c8063a32c785a1161007f578063b21b718011610059578063b21b718014610222578063d4cca5f114610242578063f2fde38b14610262578063f843e59e1461028257600080fd5b8063a32c785a146101cb578063ae76e8fb146101de578063af3e279d1461020257600080fd5b80631ddd1bf6146100c7578063583e0568146100f6578063671dfc9214610142578063715018a6146101645780638da5cb5b14610179578063a176459514610197575b600080fd5b3480156100d357600080fd5b506100dc606481565b60405163ffffffff90911681526020015b60405180910390f35b34801561010257600080fd5b5061012a7f000000000000000000000000000000000000000000000000000000000000000081565b6040516001600160a01b0390911681526020016100ed565b34801561014e57600080fd5b5061016261015d3660046110a3565b6102b6565b005b34801561017057600080fd5b50610162610377565b34801561018557600080fd5b506000546001600160a01b031661012a565b3480156101a357600080fd5b5061012a7f000000000000000000000000000000000000000000000000000000000000000081565b6101626101d9366004611239565b6103eb565b3480156101ea57600080fd5b506002546100dc90600160a01b900463ffffffff1681565b34801561020e57600080fd5b5061016261021d36600461126e565b610520565b34801561022e57600080fd5b5061012a61023d3660046112c5565b610670565b34801561024e57600080fd5b5060025461012a906001600160a01b031681565b34801561026e57600080fd5b5061016261027d3660046112de565b61069a565b34801561028e57600080fd5b5061012a7f000000000000000000000000000000000000000000000000000000000000000081565b6000546001600160a01b031633146102e95760405162461bcd60e51b81526004016102e0906112f9565b60405180910390fd5b60008163ffffffff16116103515760405162461bcd60e51b815260206004820152602960248201527f536574207075726368617365207072696365206661696c20666f72207072696360448201526865206973207a65726f60b81b60648201526084016102e0565b6002805463ffffffff909216600160a01b0263ffffffff60a01b19909216919091179055565b6000546001600160a01b031633146103a15760405162461bcd60e51b81526004016102e0906112f9565b600080546040516001600160a01b03909116907f8be0079c531659141344cd1fd0a4f28419497f9722a3daafe3b4186f6b6457e0908390a3600080546001600160a01b0319169055565b346000816104525760405162461bcd60e51b815260206004820152602e60248201527f70757263686173652065617274686f20627920455448206661696c20666f722060448201526d616d6f756e74206973207a65726f60901b60648201526084016102e0565b7f00000000000000000000000000000000000000000000000000000000000000006001600160a01b031663d0e30db0836040518263ffffffff1660e01b81526004016000604051808303818588803b1580156104ad57600080fd5b505af11580156104c1573d6000803e3d6000fd5b50505050506104f07f000000000000000000000000000000000000000000000000000000000000000083610784565b9050818110156105125760405162461bcd60e51b81526004016102e09061132e565b61051b83610801565b505050565b600082116105805760405162461bcd60e51b815260206004820152602760248201527f70757263686173652065617274686f206661696c20666f7220616d6f756e74206044820152666973207a65726f60c81b60648201526084016102e0565b60008061058c856108f5565b90508015610633576000856001600160a01b031663313ce5676040518163ffffffff1660e01b8152600401602060405180830381865afa1580156105d4573d6000803e3d6000fd5b505050506040513d601f19601f820116820180604052508101906105f8919061137b565b9050606461060782600a611498565b6002546106219190600160a01b900463ffffffff166114a7565b61062b91906114dc565b925050610640565b61063d8585610784565b91505b838210156106605760405162461bcd60e51b81526004016102e09061132e565b61066983610801565b5050505050565b6001818154811061068057600080fd5b6000918252602090912001546001600160a01b0316905081565b6000546001600160a01b031633146106c45760405162461bcd60e51b81526004016102e0906112f9565b6001600160a01b0381166107295760405162461bcd60e51b815260206004820152602660248201527f4f776e61626c653a206e6577206f776e657220697320746865207a65726f206160448201526564647265737360d01b60648201526084016102e0565b600080546040516001600160a01b03808516939216917f8be0079c531659141344cd1fd0a4f28419497f9722a3daafe3b4186f6b6457e091a3600080546001600160a01b0319166001600160a01b0392909216919091179055565b600080825b6001548210156107e1576107c5600183815481106107a9576107a96114f0565b6000918252602090912001546001600160a01b0316868661096c565b156107cf576107e1565b816107d981611506565b925050610789565b6001548210156107f45791506107fb9050565b6000925050505b92915050565b6040805160c081018252600081830181815260608084018381526080850184905260a085019182528285526020808601949094528651600190810b9093529286015190910b90915291830151909152610858610be0565b815160ff90911660409182015260608301516001600160a01b0390811660208401529051637ccc019f60e01b81527f000000000000000000000000000000000000000000000000000000000000000090911690637ccc019f906108bf908490600401611579565b600060405180830381600087803b1580156108d957600080fd5b505af11580156108ed573d6000803e3d6000fd5b505050505050565b6000805b60015481101561095257826001600160a01b031660018281548110610920576109206114f0565b6000918252602090912001546001600160a01b0316141561094057610952565b8061094a81611506565b9150506108f9565b6001548110610962576000610965565b60015b9392505050565b600080600090506000856001600160a01b031663313ce5676040518163ffffffff1660e01b8152600401602060405180830381865afa1580156109b3573d6000803e3d6000fd5b505050506040513d601f19601f820116820180604052508101906109d7919061137b565b9050600060646109e883600a611498565b600254610a029190600160a01b900463ffffffff166114a7565b610a0c91906114dc565b60408051600280825260608201835292935060009290916020830190803683375050604080516003808252608082019092529293506000929150602082016060803683370190505090508782600081518110610a6a57610a6a6114f0565b60200260200101906001600160a01b031690816001600160a01b0316815250508882600181518110610a9e57610a9e6114f0565b60200260200101906001600160a01b031690816001600160a01b031681525050610ac9828885610c35565b945084610bd3577f00000000000000000000000000000000000000000000000000000000000000006001600160a01b0316886001600160a01b031614610bd3578781600081518110610b1d57610b1d6114f0565b60200260200101906001600160a01b031690816001600160a01b0316815250507f000000000000000000000000000000000000000000000000000000000000000081600181518110610b7157610b716114f0565b60200260200101906001600160a01b031690816001600160a01b0316815250508881600281518110610ba557610ba56114f0565b60200260200101906001600160a01b031690816001600160a01b031681525050610bd0818885610c35565b94505b5092979650505050505050565b6000804442604051602001610bff929190918252602082015260400190565b60408051601f1981840301815291905280516020909101209050610c246006826115e8565b610c2f9060016115fc565b91505090565b60008080610c44846063610da5565b90925090508115610d9a57610c5a816064610ded565b9050610c9633308789600081518110610c7557610c756114f0565b60200260200101516001600160a01b0316610df9909392919063ffffffff16565b6002546001600160a01b037f00000000000000000000000000000000000000000000000000000000000000008116916338ed173991889185918b9116610cdd42601e6115fc565b6040518663ffffffff1660e01b8152600401610cfd959493929190611614565b6000604051808303816000875af1925050508015610d3d57506040513d6000823e601f3d908101601f19168201604052610d3a9190810190611685565b60015b610d7d573d808015610d6b576040519150601f19603f3d011682016040523d82523d6000602084013e610d70565b606091505b5060009350505050610965565b6000815111610d8d576000610d90565b60015b9350505050610965565b600092505050610965565b60008083610db95750600190506000610de6565b83830283858281610dcc57610dcc6114c6565b0414610ddf576000809250925050610de6565b6001925090505b9250929050565b600061096582846114dc565b604080516001600160a01b0385811660248301528416604482015260648082018490528251808303909101815260849091019091526020810180516001600160e01b03166323b872dd60e01b179052610e53908590610e59565b50505050565b6000610eae826040518060400160405280602081526020017f5361666545524332303a206c6f772d6c6576656c2063616c6c206661696c6564815250856001600160a01b0316610f2b9092919063ffffffff16565b80519091501561051b5780806020019051810190610ecc919061172b565b61051b5760405162461bcd60e51b815260206004820152602a60248201527f5361666545524332303a204552433230206f7065726174696f6e20646964206e6044820152691bdd081cdd58d8d9595960b21b60648201526084016102e0565b6060610f3a8484600085610f42565b949350505050565b606082471015610fa35760405162461bcd60e51b815260206004820152602660248201527f416464726573733a20696e73756666696369656e742062616c616e636520666f6044820152651c8818d85b1b60d21b60648201526084016102e0565b843b610ff15760405162461bcd60e51b815260206004820152601d60248201527f416464726573733a2063616c6c20746f206e6f6e2d636f6e747261637400000060448201526064016102e0565b600080866001600160a01b0316858760405161100d919061174d565b60006040518083038185875af1925050503d806000811461104a576040519150601f19603f3d011682016040523d82523d6000602084013e61104f565b606091505b509150915061105f82828661106a565b979650505050505050565b60608315611079575081610965565b8251156110895782518084602001fd5b8160405162461bcd60e51b81526004016102e09190611769565b6000602082840312156110b557600080fd5b813563ffffffff8116811461096557600080fd5b634e487b7160e01b600052604160045260246000fd5b6040516080810167ffffffffffffffff81118282101715611102576111026110c9565b60405290565b604051601f8201601f1916810167ffffffffffffffff81118282101715611131576111316110c9565b604052919050565b8035600181900b811461114b57600080fd5b919050565b80356001600160a01b038116811461114b57600080fd5b60006080828403121561117957600080fd5b6111816110df565b905061118c82611139565b8152602061119b818401611139565b81830152604083013567ffffffffffffffff808211156111ba57600080fd5b818501915085601f8301126111ce57600080fd5b8135818111156111e0576111e06110c9565b6111f2601f8201601f19168501611108565b9150808252868482850101111561120857600080fd5b808484018584013760008482840101525080604085015250505061122e60608301611150565b606082015292915050565b60006020828403121561124b57600080fd5b813567ffffffffffffffff81111561126257600080fd5b610f3a84828501611167565b60008060006060848603121561128357600080fd5b61128c84611150565b925060208401359150604084013567ffffffffffffffff8111156112af57600080fd5b6112bb86828701611167565b9150509250925092565b6000602082840312156112d757600080fd5b5035919050565b6000602082840312156112f057600080fd5b61096582611150565b6020808252818101527f4f776e61626c653a2063616c6c6572206973206e6f7420746865206f776e6572604082015260600190565b6020808252602d908201527f70757263686173652065617274686f206661696c20666f7220616d6f756e742060408201526c0d2e640dcdee840cadcdeeaced609b1b606082015260800190565b60006020828403121561138d57600080fd5b815160ff8116811461096557600080fd5b634e487b7160e01b600052601160045260246000fd5b600181815b808511156113ef5781600019048211156113d5576113d561139e565b808516156113e257918102915b93841c93908002906113b9565b509250929050565b600082611406575060016107fb565b81611413575060006107fb565b816001811461142957600281146114335761144f565b60019150506107fb565b60ff8411156114445761144461139e565b50506001821b6107fb565b5060208310610133831016604e8410600b8410161715611472575081810a6107fb565b61147c83836113b4565b80600019048211156114905761149061139e565b029392505050565b600061096560ff8416836113f7565b60008160001904831182151516156114c1576114c161139e565b500290565b634e487b7160e01b600052601260045260246000fd5b6000826114eb576114eb6114c6565b500490565b634e487b7160e01b600052603260045260246000fd5b600060001982141561151a5761151a61139e565b5060010190565b60005b8381101561153c578181015183820152602001611524565b83811115610e535750506000910152565b60008151808452611565816020860160208601611521565b601f01601f19169290920160200192915050565b602081526000825160406020840152805160010b6060840152602081015160010b608084015260ff60408201511660a084015260608101519050608060c08401526115c760e084018261154d565b602094909401516001600160a01b0316604093909301929092525090919050565b6000826115f7576115f76114c6565b500690565b6000821982111561160f5761160f61139e565b500190565b600060a082018783526020878185015260a0604085015281875180845260c086019150828901935060005b818110156116645784516001600160a01b03168352938301939183019160010161163f565b50506001600160a01b03969096166060850152505050608001529392505050565b6000602080838503121561169857600080fd5b825167ffffffffffffffff808211156116b057600080fd5b818501915085601f8301126116c457600080fd5b8151818111156116d6576116d66110c9565b8060051b91506116e7848301611108565b818152918301840191848101908884111561170157600080fd5b938501935b8385101561171f57845182529385019390850190611706565b98975050505050505050565b60006020828403121561173d57600080fd5b8151801515811461096557600080fd5b6000825161175f818460208701611521565b9190910192915050565b602081526000610965602083018461154d56fea26469706673582212208fdb981da7d3e552564d1974c3d4268f29eca7236596b013d133af652dce698464736f6c634300080b0033",
  "immutableReferences": {
    "13600": [
      {
        "length": 32,
        "start": 264
      },
      {
        "length": 32,
        "start": 3235
      }
    ],
    "13603": [
      {
        "length": 32,
        "start": 660
      },
      {
        "length": 32,
        "start": 2184
      }
    ],
    "13606": [
      {
        "length": 32,
        "start": 425
      },
      {
        "length": 32,
        "start": 1108
      },
      {
        "length": 32,
        "start": 1227
      },
      {
        "length": 32,
        "start": 2770
      },
      {
        "length": 32,
        "start": 2879
      }
    ]
  },
  "source": "// SPDX-License-Identifier: agpl-3.0\r\npragma solidity ^0.8.0;\r\n\r\nimport \"../dependencies/contracts/access/Ownable.sol\";\r\nimport \"../dependencies/contracts/token/ERC20/extensions/IERC20Metadata.sol\";\r\nimport \"../dependencies/contracts/utils/math/SafeMath.sol\";\r\nimport \"../dependencies/contracts/token/ERC20/utils/SafeERC20.sol\";\r\nimport \"../interface/IUniswapV2Router.sol\";\r\nimport \"../interface/IWETH.sol\";\r\nimport \"./Eartho.sol\";\r\n\r\ncontract EarthoExchange is Ownable {\r\n    using SafeMath for uint256;\r\n    using SafeERC20 for IERC20;\r\n\r\n    // bsc: 0x10ed43c718714eb63d5aa57b78b54704e256024e (pancakeswap base on uniswap)\r\n    IUniswapV2Router02 public immutable _uniswapV2Router;\r\n    Eartho public immutable _eartho;\r\n    IWETH public immutable _weth;\r\n    /**\r\n     * bsc usd set:\r\n         usdc: 0x8AC76a51cc950d9822D68b83fE1Ad97B32Cd580d;\r\n         usdt: 0x55d398326f99059ff775485246999027b3197955.\r\n    **/\r\n    address[] public _usd;\r\n    // who will receive payment\r\n    address public _recipient;\r\n    // the purchase price for earth(for example: $1.00 --> 100)\r\n    uint32 public _purchasePrice;\r\n    uint32 public constant PRICE_BASE = 100;\r\n\r\n    // the input params of purchase\r\n    struct purchaseInput {\r\n        int16 longitude;                // [-1800, 1800]: -1800 mean: 180.00'W; 121 mean: 12.10'E\r\n        int16 latitude;                 // [-900, 900]: -900 mean: 90.00'S; 121 mead: 12.10'N\r\n        string link;\r\n        address to;\r\n    }\r\n\r\n    /**** event ****/\r\n    event Purchase(address user, address asset, uint256 amount);\r\n\r\n\r\n    constructor (address swapV2Router,\r\n                 address eartho,\r\n                 address weth,\r\n                 address[] memory usd,\r\n                 address recipient) {\r\n        _uniswapV2Router = IUniswapV2Router02(swapV2Router);\r\n        _eartho = Eartho(eartho);\r\n        _weth = IWETH(weth);\r\n        _purchasePrice = PRICE_BASE;\r\n\r\n        for ( uint256 i = 0; i < usd.length; i++ ) {\r\n            _usd.push(usd[i]);\r\n        }\r\n        _recipient = recipient;\r\n    }\r\n\r\n    /*\r\n    * @dev: setPurchasePrice for setting the price for nft\r\n    */\r\n    function setPurchasePrice(uint32 price) external onlyOwner {\r\n        require(price > 0, \"Set purchase price fail for price is zero\");\r\n        _purchasePrice = price;\r\n    }\r\n\r\n    /*\r\n    * @dev purchaseByToken for buy eartho by erc-20/bep-20 asset\r\n    * @params token: the address of asset\r\n    * @params amount: the buy amount for user by asset\r\n    * @params input: the input params of purchase\r\n    */\r\n    function purchaseByToken(address asset, uint256 amount, purchaseInput memory input) external {\r\n        require(amount > 0, \"purchase eartho fail for amount is zero\");\r\n        uint256 price = 0;\r\n        bool isUSD = _matchUSD(asset);\r\n\r\n        if ( isUSD ) {\r\n            uint8 decimals = IERC20Metadata(asset).decimals();\r\n            price = _purchasePrice*(10**decimals) / PRICE_BASE;\r\n        }\r\n        else {\r\n            price = _swap(asset, amount);\r\n        }\r\n\r\n        require(price >= amount, 'purchase eartho fail for amount is not enough');\r\n        _mintNFT(input);\r\n    }\r\n\r\n    /*\r\n    * @dev purchaseByETH for buy eartho by eth\r\n    * @params input: the input params of purchase\r\n    */\r\n    function purchaseByETH(purchaseInput memory input) external payable {\r\n        uint256 amount = msg.value;\r\n        uint256 price = 0;\r\n        require(amount > 0, \"purchase eartho by ETH fail for amount is zero\");\r\n\r\n        _weth.deposit{value: amount}();\r\n        price = _swap(address(_weth), amount);\r\n\r\n        require(price >= amount, 'purchase eartho fail for amount is not enough');\r\n        _mintNFT(input);\r\n    }\r\n\r\n    /*\r\n    * @dev getAmount the purchase nft amount of asset\r\n    * @params: the address of asset\r\n    */\r\n    function getAmount(address asset) internal view returns(uint256) {\r\n        uint8 decimals = IERC20Metadata(_usd[0]).decimals();\r\n        uint256 price = _purchasePrice*(10**decimals) / PRICE_BASE;\r\n        uint256 amount = 0;\r\n        address[] memory path = new address[](2);\r\n        address[] memory path2 = new address[](3);\r\n        path[0] = _usd[0];\r\n        path[1] = asset;\r\n\r\n        amount = _getAmount(path, price);\r\n        if ( amount == 0 ) {\r\n            if ( asset != address(_weth) ) {\r\n                path2[0] = _usd[0];\r\n                path2[1] = address(_weth);\r\n                path2[2] = asset;\r\n                amount = _getAmount(path2, price);\r\n            }\r\n        }\r\n        return amount;\r\n    }\r\n\r\n    function _getAmount(address[] memory path, uint256 auctionPrice) internal view returns (uint256) {\r\n        try _uniswapV2Router.getAmountsOut(auctionPrice, path) returns (uint[] memory amounts) {\r\n            return (amounts.length > 0) ? amounts[amounts.length-1] : 0;\r\n        } catch (bytes memory) {\r\n            return 0;\r\n        }\r\n    }\r\n\r\n    function _swap(address asset, uint256 amount) internal returns (uint256) {\r\n        uint256 i = 0;\r\n        uint256 ret = amount;\r\n\r\n        while ( i < _usd.length ) {\r\n            if ( _isSwap(_usd[i], asset, amount) ) {\r\n                break;\r\n            } else {\r\n                i++;\r\n            }\r\n        }\r\n\r\n        if ( i < _usd.length ) {\r\n            return ret;\r\n        }\r\n        else {\r\n            return 0;\r\n        }\r\n    }\r\n\r\n    function _isSwap(address usd, address asset, uint256 amount) internal returns (bool) {\r\n        bool ret = false;\r\n        uint8 decimals = IERC20Metadata(usd).decimals();\r\n        uint256 price = _purchasePrice*(10**decimals) / PRICE_BASE;\r\n        address[] memory path = new address[](2);\r\n        address[] memory path2 = new address[](3);\r\n\r\n        path[0] = asset;\r\n        path[1] = usd;\r\n        ret = _swapToken(path, amount, price);\r\n        if ( !ret ) {\r\n            if ( asset != address(_weth) ) {\r\n                path2[0] = asset;\r\n                path2[1] = address(_weth);\r\n                path2[2] = usd;\r\n                ret = _swapToken(path2, amount, price);\r\n            }\r\n        }\r\n\r\n        return ret;\r\n    }\r\n\r\n    function _swapToken(address[] memory path, uint256 amount, uint256 auctionPrice) internal returns(bool) {\r\n        bool ret = false;\r\n        uint256 refPrice = 0;\r\n\r\n        (ret, refPrice) = auctionPrice.tryMul(99);\r\n        if ( ret ) {\r\n            refPrice = refPrice.div(100);\r\n            IERC20(path[0]).safeTransferFrom(msg.sender, address(this), amount);\r\n            try _uniswapV2Router.swapExactTokensForTokens(amount,\r\n                                                          refPrice,\r\n                                                          path,\r\n                                                          _recipient,\r\n                                                          block.timestamp+30)\r\n                returns (uint[] memory amounts) {\r\n                return (amounts.length > 0) ? true : false;\r\n            } catch (bytes memory) {\r\n                return false;\r\n            }\r\n        } else {\r\n            return false;\r\n        }\r\n    }\r\n\r\n    function _matchUSD(address asset) internal view returns(bool) {\r\n        uint256 i = 0;\r\n\r\n        while ( i < _usd.length ) {\r\n            if ( _usd[i] == asset ) {\r\n                break;\r\n            } else {\r\n                i++;\r\n            }\r\n        }\r\n\r\n        return ( i < _usd.length ) ? true : false;\r\n    }\r\n\r\n    function _mintNFT(purchaseInput memory input) internal {\r\n        Eartho.mintInput memory mintParams;\r\n\r\n        mintParams.context.longitude = input.longitude;\r\n        mintParams.context.latitude = input.latitude;\r\n        mintParams.context.link = input.link;\r\n        mintParams.context.level = rand();\r\n        mintParams.to = input.to;\r\n\r\n        _eartho.mint(mintParams);\r\n    }\r\n\r\n    function rand() internal view returns(uint8) {\r\n        uint256 random = uint256(keccak256(abi.encodePacked(block.difficulty, block.timestamp)));\r\n        return uint8(random%6+1);\r\n    }\r\n}",
  "sourcePath": "E:\\my_work\\Blockchain\\Polylend\\core\\Earth_token\\contracts\\token\\EarthoExchange.sol",
  "compiler": {
    "name": "solc",
    "version": "0.8.11+commit.d7f03943.Emscripten.clang"
  },
  "schemaVersion": "3.4.4",
  "updatedAt": "2022-01-29T04:49:59.159Z",
  "devdoc": {
    "kind": "dev",
    "methods": {
      "owner()": {
        "details": "Returns the address of the current owner."
      },
      "renounceOwnership()": {
        "details": "Leaves the contract without owner. It will not be possible to call `onlyOwner` functions anymore. Can only be called by the current owner. NOTE: Renouncing ownership will leave the contract without an owner, thereby removing any functionality that is only available to the owner."
      },
      "transferOwnership(address)": {
        "details": "Transfers ownership of the contract to a new account (`newOwner`). Can only be called by the current owner."
      }
    },
    "version": 1
  },
  "userdoc": {
    "kind": "user",
    "methods": {
      "_usd(uint256)": {
        "notice": "bsc usd set: usdc: 0x8AC76a51cc950d9822D68b83fE1Ad97B32Cd580d; usdt: 0x55d398326f99059ff775485246999027b3197955.*"
      }
    },
    "version": 1
  }
}